{
  "_format": "hh-sol-artifact-1",
  "contractName": "G6Token_Swap",
  "sourceName": "contracts/G6Token_Swap.sol",
  "abi": [
    {
      "inputs": [],
      "stateMutability": "nonpayable",
      "type": "constructor"
    },
    {
      "anonymous": false,
      "inputs": [
        {
          "indexed": true,
          "internalType": "address",
          "name": "previousOwner",
          "type": "address"
        },
        {
          "indexed": true,
          "internalType": "address",
          "name": "newOwner",
          "type": "address"
        }
      ],
      "name": "OwnershipTransferred",
      "type": "event"
    },
    {
      "inputs": [],
      "name": "buyTokens",
      "outputs": [],
      "stateMutability": "payable",
      "type": "function"
    },
    {
      "inputs": [],
      "name": "g6Token",
      "outputs": [
        {
          "internalType": "contract G6Token",
          "name": "",
          "type": "address"
        }
      ],
      "stateMutability": "view",
      "type": "function"
    },
    {
      "inputs": [],
      "name": "owner",
      "outputs": [
        {
          "internalType": "address",
          "name": "",
          "type": "address"
        }
      ],
      "stateMutability": "view",
      "type": "function"
    },
    {
      "inputs": [],
      "name": "purchaseRatio",
      "outputs": [
        {
          "internalType": "uint256",
          "name": "",
          "type": "uint256"
        }
      ],
      "stateMutability": "view",
      "type": "function"
    },
    {
      "inputs": [],
      "name": "renounceOwnership",
      "outputs": [],
      "stateMutability": "nonpayable",
      "type": "function"
    },
    {
      "inputs": [
        {
          "internalType": "uint256",
          "name": "amount",
          "type": "uint256"
        }
      ],
      "name": "sellTokens",
      "outputs": [],
      "stateMutability": "nonpayable",
      "type": "function"
    },
    {
      "inputs": [
        {
          "internalType": "address",
          "name": "newOwner",
          "type": "address"
        }
      ],
      "name": "transferOwnership",
      "outputs": [],
      "stateMutability": "nonpayable",
      "type": "function"
    },
    {
      "inputs": [],
      "name": "withdraw",
      "outputs": [],
      "stateMutability": "nonpayable",
      "type": "function"
    }
  ],
  "bytecode": "0x608060405234801561001057600080fd5b5061002d61002261009060201b60201c565b61009860201b60201c565b73b46b5c88464e2dcee987f159f6cf1066b52a360d600160006101000a81548173ffffffffffffffffffffffffffffffffffffffff021916908373ffffffffffffffffffffffffffffffffffffffff16021790555061271060028190555061015c565b600033905090565b60008060009054906101000a900473ffffffffffffffffffffffffffffffffffffffff169050816000806101000a81548173ffffffffffffffffffffffffffffffffffffffff021916908373ffffffffffffffffffffffffffffffffffffffff1602179055508173ffffffffffffffffffffffffffffffffffffffff168173ffffffffffffffffffffffffffffffffffffffff167f8be0079c531659141344cd1fd0a4f28419497f9722a3daafe3b4186f6b6457e060405160405180910390a35050565b610aae8061016b6000396000f3fe60806040526004361061007b5760003560e01c806395cadc471161004e57806395cadc4714610102578063b7bd72c91461012d578063d0febe4c14610158578063f2fde38b146101625761007b565b80633ccfd60b146100805780636c11bcd314610097578063715018a6146100c05780638da5cb5b146100d7575b600080fd5b34801561008c57600080fd5b5061009561018b565b005b3480156100a357600080fd5b506100be60048036038101906100b99190610637565b610242565b005b3480156100cc57600080fd5b506100d5610328565b005b3480156100e357600080fd5b506100ec61033c565b6040516100f991906106a5565b60405180910390f35b34801561010e57600080fd5b50610117610365565b60405161012491906106cf565b60405180910390f35b34801561013957600080fd5b5061014261036b565b60405161014f9190610749565b60405180910390f35b610160610391565b005b34801561016e57600080fd5b5061018960048036038101906101849190610790565b61042f565b005b6101936104b2565b60003373ffffffffffffffffffffffffffffffffffffffff16476040516101b9906107ee565b60006040518083038185875af1925050503d80600081146101f6576040519150601f19603f3d011682016040523d82523d6000602084013e6101fb565b606091505b505090508061023f576040517f08c379a000000000000000000000000000000000000000000000000000000000815260040161023690610860565b60405180910390fd5b50565b600160009054906101000a900473ffffffffffffffffffffffffffffffffffffffff1673ffffffffffffffffffffffffffffffffffffffff166379cc679033836040518363ffffffff1660e01b815260040161029f929190610880565b600060405180830381600087803b1580156102b957600080fd5b505af11580156102cd573d6000803e3d6000fd5b505050503373ffffffffffffffffffffffffffffffffffffffff166108fc600254836102f99190610907565b9081150290604051600060405180830381858888f19350505050158015610324573d6000803e3d6000fd5b5050565b6103306104b2565b61033a6000610530565b565b60008060009054906101000a900473ffffffffffffffffffffffffffffffffffffffff16905090565b60025481565b600160009054906101000a900473ffffffffffffffffffffffffffffffffffffffff1681565b600160009054906101000a900473ffffffffffffffffffffffffffffffffffffffff1673ffffffffffffffffffffffffffffffffffffffff166340c10f1933600254346103de9190610938565b6040518363ffffffff1660e01b81526004016103fb929190610880565b600060405180830381600087803b15801561041557600080fd5b505af1158015610429573d6000803e3d6000fd5b50505050565b6104376104b2565b600073ffffffffffffffffffffffffffffffffffffffff168173ffffffffffffffffffffffffffffffffffffffff16036104a6576040517f08c379a000000000000000000000000000000000000000000000000000000000815260040161049d906109ec565b60405180910390fd5b6104af81610530565b50565b6104ba6105f4565b73ffffffffffffffffffffffffffffffffffffffff166104d861033c565b73ffffffffffffffffffffffffffffffffffffffff161461052e576040517f08c379a000000000000000000000000000000000000000000000000000000000815260040161052590610a58565b60405180910390fd5b565b60008060009054906101000a900473ffffffffffffffffffffffffffffffffffffffff169050816000806101000a81548173ffffffffffffffffffffffffffffffffffffffff021916908373ffffffffffffffffffffffffffffffffffffffff1602179055508173ffffffffffffffffffffffffffffffffffffffff168173ffffffffffffffffffffffffffffffffffffffff167f8be0079c531659141344cd1fd0a4f28419497f9722a3daafe3b4186f6b6457e060405160405180910390a35050565b600033905090565b600080fd5b6000819050919050565b61061481610601565b811461061f57600080fd5b50565b6000813590506106318161060b565b92915050565b60006020828403121561064d5761064c6105fc565b5b600061065b84828501610622565b91505092915050565b600073ffffffffffffffffffffffffffffffffffffffff82169050919050565b600061068f82610664565b9050919050565b61069f81610684565b82525050565b60006020820190506106ba6000830184610696565b92915050565b6106c981610601565b82525050565b60006020820190506106e460008301846106c0565b92915050565b6000819050919050565b600061070f61070a61070584610664565b6106ea565b610664565b9050919050565b6000610721826106f4565b9050919050565b600061073382610716565b9050919050565b61074381610728565b82525050565b600060208201905061075e600083018461073a565b92915050565b61076d81610684565b811461077857600080fd5b50565b60008135905061078a81610764565b92915050565b6000602082840312156107a6576107a56105fc565b5b60006107b48482850161077b565b91505092915050565b600081905092915050565b50565b60006107d86000836107bd565b91506107e3826107c8565b600082019050919050565b60006107f9826107cb565b9150819050919050565b600082825260208201905092915050565b7f4661696c656420746f2077697468647261770000000000000000000000000000600082015250565b600061084a601283610803565b915061085582610814565b602082019050919050565b600060208201905081810360008301526108798161083d565b9050919050565b60006040820190506108956000830185610696565b6108a260208301846106c0565b9392505050565b7f4e487b7100000000000000000000000000000000000000000000000000000000600052601260045260246000fd5b7f4e487b7100000000000000000000000000000000000000000000000000000000600052601160045260246000fd5b600061091282610601565b915061091d83610601565b92508261092d5761092c6108a9565b5b828204905092915050565b600061094382610601565b915061094e83610601565b925082820261095c81610601565b91508282048414831517610973576109726108d8565b5b5092915050565b7f4f776e61626c653a206e6577206f776e657220697320746865207a65726f206160008201527f6464726573730000000000000000000000000000000000000000000000000000602082015250565b60006109d6602683610803565b91506109e18261097a565b604082019050919050565b60006020820190508181036000830152610a05816109c9565b9050919050565b7f4f776e61626c653a2063616c6c6572206973206e6f7420746865206f776e6572600082015250565b6000610a42602083610803565b9150610a4d82610a0c565b602082019050919050565b60006020820190508181036000830152610a7181610a35565b905091905056fea2646970667358221220a7e3a27c30ea1fb635be1d8f66f2c6c0bb70716e2de26ad8c0404d1bee2a46f664736f6c63430008130033",
  "linkReferences": {},
  "deployedLinkReferences": {}
}