{
  "_format": "hh-sol-artifact-1",
  "contractName": "LendingProtocol",
  "sourceName": "contracts/LendingProtocol.sol",
  "abi": [
    {
      "inputs": [],
      "stateMutability": "nonpayable",
      "type": "constructor"
    },
    {
      "anonymous": false,
      "inputs": [
        {
          "indexed": true,
          "internalType": "address",
          "name": "previousOwner",
          "type": "address"
        },
        {
          "indexed": true,
          "internalType": "address",
          "name": "newOwner",
          "type": "address"
        }
      ],
      "name": "OwnershipTransferred",
      "type": "event"
    },
    {
      "inputs": [],
      "name": "borrowTV",
      "outputs": [
        {
          "internalType": "uint256",
          "name": "",
          "type": "uint256"
        }
      ],
      "stateMutability": "view",
      "type": "function"
    },
    {
      "inputs": [
        {
          "internalType": "uint256",
          "name": "amount",
          "type": "uint256"
        }
      ],
      "name": "borrowUSDC_B",
      "outputs": [],
      "stateMutability": "nonpayable",
      "type": "function"
    },
    {
      "inputs": [],
      "name": "depositETH_C",
      "outputs": [],
      "stateMutability": "payable",
      "type": "function"
    },
    {
      "inputs": [
        {
          "internalType": "uint256",
          "name": "amount",
          "type": "uint256"
        }
      ],
      "name": "depositUSDC_L",
      "outputs": [],
      "stateMutability": "nonpayable",
      "type": "function"
    },
    {
      "inputs": [],
      "name": "feesPool",
      "outputs": [
        {
          "internalType": "uint256",
          "name": "",
          "type": "uint256"
        }
      ],
      "stateMutability": "view",
      "type": "function"
    },
    {
      "inputs": [],
      "name": "g6Token",
      "outputs": [
        {
          "internalType": "contract G6Token",
          "name": "",
          "type": "address"
        }
      ],
      "stateMutability": "view",
      "type": "function"
    },
    {
      "inputs": [],
      "name": "getETHPrice",
      "outputs": [
        {
          "internalType": "uint256",
          "name": "ethPrice",
          "type": "uint256"
        }
      ],
      "stateMutability": "view",
      "type": "function"
    },
    {
      "inputs": [
        {
          "internalType": "uint256",
          "name": "amount",
          "type": "uint256"
        }
      ],
      "name": "getG6TValue_USDC",
      "outputs": [
        {
          "internalType": "uint256",
          "name": "",
          "type": "uint256"
        }
      ],
      "stateMutability": "view",
      "type": "function"
    },
    {
      "inputs": [
        {
          "internalType": "uint256",
          "name": "amount",
          "type": "uint256"
        }
      ],
      "name": "getUSDCValue_ETH",
      "outputs": [
        {
          "internalType": "uint256",
          "name": "",
          "type": "uint256"
        }
      ],
      "stateMutability": "view",
      "type": "function"
    },
    {
      "inputs": [],
      "name": "lendingPool",
      "outputs": [
        {
          "internalType": "uint256",
          "name": "",
          "type": "uint256"
        }
      ],
      "stateMutability": "view",
      "type": "function"
    },
    {
      "inputs": [],
      "name": "oracleContract",
      "outputs": [
        {
          "internalType": "contract CallOracle",
          "name": "",
          "type": "address"
        }
      ],
      "stateMutability": "view",
      "type": "function"
    },
    {
      "inputs": [],
      "name": "owner",
      "outputs": [
        {
          "internalType": "address",
          "name": "",
          "type": "address"
        }
      ],
      "stateMutability": "view",
      "type": "function"
    },
    {
      "inputs": [],
      "name": "ownerWithdrawETH",
      "outputs": [],
      "stateMutability": "nonpayable",
      "type": "function"
    },
    {
      "inputs": [],
      "name": "ownerWithdrawUSDC",
      "outputs": [],
      "stateMutability": "nonpayable",
      "type": "function"
    },
    {
      "inputs": [],
      "name": "renounceOwnership",
      "outputs": [],
      "stateMutability": "nonpayable",
      "type": "function"
    },
    {
      "inputs": [
        {
          "internalType": "uint256",
          "name": "amount",
          "type": "uint256"
        }
      ],
      "name": "repayUSDC_B",
      "outputs": [],
      "stateMutability": "nonpayable",
      "type": "function"
    },
    {
      "inputs": [
        {
          "internalType": "address",
          "name": "account",
          "type": "address"
        }
      ],
      "name": "totalDebtOf",
      "outputs": [
        {
          "internalType": "uint256",
          "name": "totalDebt",
          "type": "uint256"
        }
      ],
      "stateMutability": "view",
      "type": "function"
    },
    {
      "inputs": [
        {
          "internalType": "address",
          "name": "account",
          "type": "address"
        }
      ],
      "name": "totalFeeOf",
      "outputs": [
        {
          "internalType": "uint256",
          "name": "tempFee",
          "type": "uint256"
        }
      ],
      "stateMutability": "view",
      "type": "function"
    },
    {
      "inputs": [
        {
          "internalType": "address",
          "name": "account",
          "type": "address"
        }
      ],
      "name": "totalUSDCRewards_C",
      "outputs": [
        {
          "internalType": "uint256",
          "name": "",
          "type": "uint256"
        }
      ],
      "stateMutability": "view",
      "type": "function"
    },
    {
      "inputs": [
        {
          "internalType": "address",
          "name": "account",
          "type": "address"
        }
      ],
      "name": "totalUSDCRewards_L",
      "outputs": [
        {
          "internalType": "uint256",
          "name": "",
          "type": "uint256"
        }
      ],
      "stateMutability": "view",
      "type": "function"
    },
    {
      "inputs": [
        {
          "internalType": "address",
          "name": "newOwner",
          "type": "address"
        }
      ],
      "name": "transferOwnership",
      "outputs": [],
      "stateMutability": "nonpayable",
      "type": "function"
    },
    {
      "inputs": [],
      "name": "usdcToken",
      "outputs": [
        {
          "internalType": "contract IERC20",
          "name": "",
          "type": "address"
        }
      ],
      "stateMutability": "view",
      "type": "function"
    },
    {
      "inputs": [
        {
          "internalType": "address",
          "name": "",
          "type": "address"
        }
      ],
      "name": "user",
      "outputs": [
        {
          "internalType": "uint256",
          "name": "depositL_USDC",
          "type": "uint256"
        },
        {
          "internalType": "uint256",
          "name": "time_depositL_USDC",
          "type": "uint256"
        },
        {
          "internalType": "uint256",
          "name": "reward_depositL_USDC",
          "type": "uint256"
        },
        {
          "internalType": "uint256",
          "name": "depositC_ETH",
          "type": "uint256"
        },
        {
          "internalType": "uint256",
          "name": "time_depositC_ETH",
          "type": "uint256"
        },
        {
          "internalType": "uint256",
          "name": "reward_depositC_ETH",
          "type": "uint256"
        },
        {
          "internalType": "uint256",
          "name": "availableB_USDC",
          "type": "uint256"
        },
        {
          "internalType": "uint256",
          "name": "withdrawB_USDC",
          "type": "uint256"
        },
        {
          "internalType": "uint256",
          "name": "time_withdrawB_USDC",
          "type": "uint256"
        },
        {
          "internalType": "uint256",
          "name": "interestFee",
          "type": "uint256"
        }
      ],
      "stateMutability": "view",
      "type": "function"
    },
    {
      "inputs": [
        {
          "internalType": "uint256",
          "name": "amount",
          "type": "uint256"
        }
      ],
      "name": "withdrawETH_C",
      "outputs": [],
      "stateMutability": "nonpayable",
      "type": "function"
    },
    {
      "inputs": [
        {
          "internalType": "uint256",
          "name": "amount",
          "type": "uint256"
        }
      ],
      "name": "withdrawUSDC_L",
      "outputs": [],
      "stateMutability": "nonpayable",
      "type": "function"
    },
    {
      "stateMutability": "payable",
      "type": "receive"
    }
  ],
  "bytecode": "0x60806040523480156200001157600080fd5b5062000032620000266200013760201b60201c565b6200013f60201b60201c565b73b46b5c88464e2dcee987f159f6cf1066b52a360d600360006101000a81548173ffffffffffffffffffffffffffffffffffffffff021916908373ffffffffffffffffffffffffffffffffffffffff16021790555073d17ecb6579cad73ae27596929e13b619ba9060a5600160006101000a81548173ffffffffffffffffffffffffffffffffffffffff021916908373ffffffffffffffffffffffffffffffffffffffff1602179055507394a9d9ac8a22534e3faca9f4e7f2e2cf85d5e4c8600260006101000a81548173ffffffffffffffffffffffffffffffffffffffff021916908373ffffffffffffffffffffffffffffffffffffffff16021790555062000203565b600033905090565b60008060009054906101000a900473ffffffffffffffffffffffffffffffffffffffff169050816000806101000a81548173ffffffffffffffffffffffffffffffffffffffff021916908373ffffffffffffffffffffffffffffffffffffffff1602179055508173ffffffffffffffffffffffffffffffffffffffff168173ffffffffffffffffffffffffffffffffffffffff167f8be0079c531659141344cd1fd0a4f28419497f9722a3daafe3b4186f6b6457e060405160405180910390a35050565b61338780620002136000396000f3fe60806040526004361061016a5760003560e01c80639219e045116100d1578063bdf8781c1161008a578063d2b9c92611610064578063d2b9c9261461050d578063db10adb014610536578063f2fde38b14610561578063f6ae68891461058a57610171565b8063bdf8781c14610490578063bece7532146104b9578063cdd6f21b146104e457610171565b80639219e0451461036c5780639f2b2833146103a9578063a0989e3e146103e6578063a59a99731461040f578063a607a8d91461043a578063b7bd72c91461046557610171565b80636412b21a116101235780636412b21a146102655780636b259690146102a2578063715018a6146102cd5780637ac75343146102e457806381e7e20e146102fb5780638da5cb5b1461034157610171565b806311eac855146101765780631ecddf54146101a157806327a910dc146101ab5780632947b516146101c25780632fc80872146101ff5780635acf04a11461023c57610171565b3661017157005b600080fd5b34801561018257600080fd5b5061018b6105c7565b6040516101989190612a4b565b60405180910390f35b6101a96105ed565b005b3480156101b757600080fd5b506101c0610837565b005b3480156101ce57600080fd5b506101e960048036038101906101e49190612aa1565b6108ee565b6040516101f69190612add565b60405180910390f35b34801561020b57600080fd5b5061022660048036038101906102219190612b36565b61092f565b6040516102339190612add565b60405180910390f35b34801561024857600080fd5b50610263600480360381019061025e9190612aa1565b610a95565b005b34801561027157600080fd5b5061028c60048036038101906102879190612aa1565b610e3b565b6040516102999190612add565b60405180910390f35b3480156102ae57600080fd5b506102b7610e6a565b6040516102c49190612add565b60405180910390f35b3480156102d957600080fd5b506102e2610e70565b005b3480156102f057600080fd5b506102f9610e84565b005b34801561030757600080fd5b50610322600480360381019061031d9190612b36565b610f4e565b6040516103389a99989796959493929190612b63565b60405180910390f35b34801561034d57600080fd5b50610356610fa2565b6040516103639190612c0e565b60405180910390f35b34801561037857600080fd5b50610393600480360381019061038e9190612b36565b610fcb565b6040516103a09190612add565b60405180910390f35b3480156103b557600080fd5b506103d060048036038101906103cb9190612b36565b611123565b6040516103dd9190612add565b60405180910390f35b3480156103f257600080fd5b5061040d60048036038101906104089190612aa1565b6111d5565b005b34801561041b57600080fd5b506104246115f7565b6040516104319190612add565b60405180910390f35b34801561044657600080fd5b5061044f6115fd565b60405161045c9190612add565b60405180910390f35b34801561047157600080fd5b5061047a6116a1565b6040516104879190612c4a565b60405180910390f35b34801561049c57600080fd5b506104b760048036038101906104b29190612aa1565b6116c7565b005b3480156104c557600080fd5b506104ce611ee8565b6040516104db9190612c86565b60405180910390f35b3480156104f057600080fd5b5061050b60048036038101906105069190612aa1565b611f0e565b005b34801561051957600080fd5b50610534600480360381019061052f9190612aa1565b61229d565b005b34801561054257600080fd5b5061054b61269b565b6040516105589190612add565b60405180910390f35b34801561056d57600080fd5b5061058860048036038101906105839190612b36565b6126a1565b005b34801561059657600080fd5b506105b160048036038101906105ac9190612b36565b612724565b6040516105be9190612add565b60405180910390f35b600260009054906101000a900473ffffffffffffffffffffffffffffffffffffffff1681565b6000600460003373ffffffffffffffffffffffffffffffffffffffff1673ffffffffffffffffffffffffffffffffffffffff1681526020019081526020016000206004015414610699576106403361092f565b600460003373ffffffffffffffffffffffffffffffffffffffff1673ffffffffffffffffffffffffffffffffffffffff16815260200190815260200160002060050160008282546106919190612cd0565b925050819055505b42600460003373ffffffffffffffffffffffffffffffffffffffff1673ffffffffffffffffffffffffffffffffffffffff1681526020019081526020016000206004018190555034600460003373ffffffffffffffffffffffffffffffffffffffff1673ffffffffffffffffffffffffffffffffffffffff16815260200190815260200160002060030160008282546107329190612cd0565b925050819055506000600a600861078a600460003373ffffffffffffffffffffffffffffffffffffffff1673ffffffffffffffffffffffffffffffffffffffff16815260200190815260200160002060030154610e3b565b6107949190612d04565b61079e9190612d75565b9050600460003373ffffffffffffffffffffffffffffffffffffffff1673ffffffffffffffffffffffffffffffffffffffff16815260200190815260200160002060070154816107ee9190612da6565b600460003373ffffffffffffffffffffffffffffffffffffffff1673ffffffffffffffffffffffffffffffffffffffff1681526020019081526020016000206006018190555050565b61083f612882565b60003373ffffffffffffffffffffffffffffffffffffffff164760405161086590612e0b565b60006040518083038185875af1925050503d80600081146108a2576040519150601f19603f3d011682016040523d82523d6000602084013e6108a7565b606091505b50509050806108eb576040517f08c379a00000000000000000000000000000000000000000000000000000000081526004016108e290612e7d565b60405180910390fd5b50565b600080612710836108ff9190612d75565b9050670de0b6b3a76400006109126115fd565b8261091d9190612d04565b6109279190612d75565b915050919050565b600080600460008473ffffffffffffffffffffffffffffffffffffffff1673ffffffffffffffffffffffffffffffffffffffff16815260200190815260200160002060040154036109835760009050610a90565b6000600460008473ffffffffffffffffffffffffffffffffffffffff1673ffffffffffffffffffffffffffffffffffffffff16815260200190815260200160002060040154426109d39190612da6565b9050600062061a80610a26600460008773ffffffffffffffffffffffffffffffffffffffff1673ffffffffffffffffffffffffffffffffffffffff16815260200190815260200160002060030154610e3b565b610a309190612d75565b82610a3b9190612d04565b600460008673ffffffffffffffffffffffffffffffffffffffff1673ffffffffffffffffffffffffffffffffffffffff16815260200190815260200160002060050154610a889190612cd0565b905080925050505b919050565b8060008111610ad9576040517f08c379a0000000000000000000000000000000000000000000000000000000008152600401610ad090612ee9565b60405180910390fd5b600460003373ffffffffffffffffffffffffffffffffffffffff1673ffffffffffffffffffffffffffffffffffffffff16815260200190815260200160002060000154821115610b5e576040517f08c379a0000000000000000000000000000000000000000000000000000000008152600401610b5590612f7b565b60405180910390fd5b6000610b71610b6c33612724565b6108ee565b9050600460003373ffffffffffffffffffffffffffffffffffffffff1673ffffffffffffffffffffffffffffffffffffffff168152602001908152602001600020600001548303610c05576000600460003373ffffffffffffffffffffffffffffffffffffffff1673ffffffffffffffffffffffffffffffffffffffff168152602001908152602001600020600101819055505b82600460003373ffffffffffffffffffffffffffffffffffffffff1673ffffffffffffffffffffffffffffffffffffffff1681526020019081526020016000206000016000828254610c579190612da6565b925050819055508260056000828254610c709190612da6565b925050819055506000600460003373ffffffffffffffffffffffffffffffffffffffff1673ffffffffffffffffffffffffffffffffffffffff1681526020019081526020016000206002018190555042600460003373ffffffffffffffffffffffffffffffffffffffff1673ffffffffffffffffffffffffffffffffffffffff16815260200190815260200160002060010181905550600260009054906101000a900473ffffffffffffffffffffffffffffffffffffffff1673ffffffffffffffffffffffffffffffffffffffff1663a9059cbb33856040518363ffffffff1660e01b8152600401610d63929190612f9b565b6020604051808303816000875af1158015610d82573d6000803e3d6000fd5b505050506040513d601f19601f82011682018060405250810190610da69190612ffc565b50600360009054906101000a900473ffffffffffffffffffffffffffffffffffffffff1673ffffffffffffffffffffffffffffffffffffffff166340c10f1933836040518363ffffffff1660e01b8152600401610e04929190612f9b565b600060405180830381600087803b158015610e1e57600080fd5b505af1158015610e32573d6000803e3d6000fd5b50505050505050565b6000670de0b6b3a7640000610e4e6115fd565b83610e599190612d04565b610e639190612d75565b9050919050565b60065481565b610e78612882565b610e826000612900565b565b610e8c612882565b600260009054906101000a900473ffffffffffffffffffffffffffffffffffffffff1673ffffffffffffffffffffffffffffffffffffffff1663a9059cbb33600654600554610edb9190612cd0565b6040518363ffffffff1660e01b8152600401610ef8929190612f9b565b6020604051808303816000875af1158015610f17573d6000803e3d6000fd5b505050506040513d601f19601f82011682018060405250810190610f3b9190612ffc565b5060006005819055506000600681905550565b6004602052806000526040600020600091509050806000015490806001015490806002015490806003015490806004015490806005015490806006015490806007015490806008015490806009015490508a565b60008060009054906101000a900473ffffffffffffffffffffffffffffffffffffffff16905090565b600080600460008473ffffffffffffffffffffffffffffffffffffffff1673ffffffffffffffffffffffffffffffffffffffff168152602001908152602001600020600801540361101f576000905061111e565b6000600460008473ffffffffffffffffffffffffffffffffffffffff1673ffffffffffffffffffffffffffffffffffffffff168152602001908152602001600020600801544261106f9190612da6565b9050620186a0600460008573ffffffffffffffffffffffffffffffffffffffff1673ffffffffffffffffffffffffffffffffffffffff168152602001908152602001600020600701546110c29190612d75565b816110cd9190612d04565b600460008573ffffffffffffffffffffffffffffffffffffffff1673ffffffffffffffffffffffffffffffffffffffff1681526020019081526020016000206009015461111a9190612cd0565b9150505b919050565b600080600460008473ffffffffffffffffffffffffffffffffffffffff1673ffffffffffffffffffffffffffffffffffffffff168152602001908152602001600020600801540361117757600090506111d0565b61118082610fcb565b600460008473ffffffffffffffffffffffffffffffffffffffff1673ffffffffffffffffffffffffffffffffffffffff168152602001908152602001600020600701546111cd9190612cd0565b90505b919050565b8060008111611219576040517f08c379a000000000000000000000000000000000000000000000000000000000815260040161121090612ee9565b60405180910390fd5b611221610fa2565b73ffffffffffffffffffffffffffffffffffffffff163373ffffffffffffffffffffffffffffffffffffffff16036112fb57600260009054906101000a900473ffffffffffffffffffffffffffffffffffffffff1673ffffffffffffffffffffffffffffffffffffffff166323b872dd3330856040518463ffffffff1660e01b81526004016112b293929190613029565b6020604051808303816000875af11580156112d1573d6000803e3d6000fd5b505050506040513d601f19601f820116820180604052508101906112f59190612ffc565b50611581565b6000600460003373ffffffffffffffffffffffffffffffffffffffff1673ffffffffffffffffffffffffffffffffffffffff16815260200190815260200160002060010154146114955761134e33612724565b600460003373ffffffffffffffffffffffffffffffffffffffff1673ffffffffffffffffffffffffffffffffffffffff168152602001908152602001600020600201600082825461139f9190612cd0565b92505081905550600260009054906101000a900473ffffffffffffffffffffffffffffffffffffffff1673ffffffffffffffffffffffffffffffffffffffff166323b872dd3330856040518463ffffffff1660e01b815260040161140593929190613029565b6020604051808303816000875af1158015611424573d6000803e3d6000fd5b505050506040513d601f19601f820116820180604052508101906114489190612ffc565b5042600460003373ffffffffffffffffffffffffffffffffffffffff1673ffffffffffffffffffffffffffffffffffffffff16815260200190815260200160002060010181905550611580565b600260009054906101000a900473ffffffffffffffffffffffffffffffffffffffff1673ffffffffffffffffffffffffffffffffffffffff166323b872dd3330856040518463ffffffff1660e01b81526004016114f493929190613029565b6020604051808303816000875af1158015611513573d6000803e3d6000fd5b505050506040513d601f19601f820116820180604052508101906115379190612ffc565b5042600460003373ffffffffffffffffffffffffffffffffffffffff1673ffffffffffffffffffffffffffffffffffffffff168152602001908152602001600020600101819055505b5b81600460003373ffffffffffffffffffffffffffffffffffffffff1673ffffffffffffffffffffffffffffffffffffffff16815260200190815260200160002060000160008282546115d39190612cd0565b9250508190555081600560008282546115ec9190612cd0565b925050819055505050565b60055481565b60006064600160009054906101000a900473ffffffffffffffffffffffffffffffffffffffff1673ffffffffffffffffffffffffffffffffffffffff1663a0a8045e6040518163ffffffff1660e01b8152600401602060405180830381865afa15801561166e573d6000803e3d6000fd5b505050506040513d601f19601f820116820180604052508101906116929190613096565b61169c9190612d75565b905090565b600360009054906101000a900473ffffffffffffffffffffffffffffffffffffffff1681565b806000811161170b576040517f08c379a000000000000000000000000000000000000000000000000000000000815260040161170290612ee9565b60405180910390fd5b600061171633611123565b905061172133610fcb565b600460003373ffffffffffffffffffffffffffffffffffffffff1673ffffffffffffffffffffffffffffffffffffffff16815260200190815260200160002060090181905550808310611aba57600260009054906101000a900473ffffffffffffffffffffffffffffffffffffffff1673ffffffffffffffffffffffffffffffffffffffff166323b872dd3330846040518463ffffffff1660e01b81526004016117cd93929190613029565b6020604051808303816000875af11580156117ec573d6000803e3d6000fd5b505050506040513d601f19601f820116820180604052508101906118109190612ffc565b50600a6008611860600460003373ffffffffffffffffffffffffffffffffffffffff1673ffffffffffffffffffffffffffffffffffffffff16815260200190815260200160002060030154610e3b565b61186a9190612d04565b6118749190612d75565b600460003373ffffffffffffffffffffffffffffffffffffffff1673ffffffffffffffffffffffffffffffffffffffff16815260200190815260200160002060060160008282546118c59190612cd0565b92505081905550600460003373ffffffffffffffffffffffffffffffffffffffff1673ffffffffffffffffffffffffffffffffffffffff16815260200190815260200160002060070154600560008282546119209190612cd0565b92505081905550600460003373ffffffffffffffffffffffffffffffffffffffff1673ffffffffffffffffffffffffffffffffffffffff168152602001908152602001600020600901546006600082825461197b9190612cd0565b92505081905550600460003373ffffffffffffffffffffffffffffffffffffffff1673ffffffffffffffffffffffffffffffffffffffff16815260200190815260200160002060070154600760008282546119d69190612da6565b925050819055506000600460003373ffffffffffffffffffffffffffffffffffffffff1673ffffffffffffffffffffffffffffffffffffffff168152602001908152602001600020600701819055506000600460003373ffffffffffffffffffffffffffffffffffffffff1673ffffffffffffffffffffffffffffffffffffffff168152602001908152602001600020600901819055506000600460003373ffffffffffffffffffffffffffffffffffffffff1673ffffffffffffffffffffffffffffffffffffffff16815260200190815260200160002060080181905550611ee3565b600460003373ffffffffffffffffffffffffffffffffffffffff1673ffffffffffffffffffffffffffffffffffffffff168152602001908152602001600020600901548310611dcc57600260009054906101000a900473ffffffffffffffffffffffffffffffffffffffff1673ffffffffffffffffffffffffffffffffffffffff166323b872dd3330866040518463ffffffff1660e01b8152600401611b6293929190613029565b6020604051808303816000875af1158015611b81573d6000803e3d6000fd5b505050506040513d601f19601f82011682018060405250810190611ba59190612ffc565b5042600460003373ffffffffffffffffffffffffffffffffffffffff1673ffffffffffffffffffffffffffffffffffffffff168152602001908152602001600020600801819055506000600460003373ffffffffffffffffffffffffffffffffffffffff1673ffffffffffffffffffffffffffffffffffffffff1681526020019081526020016000206009015484611c3d9190612da6565b9050600460003373ffffffffffffffffffffffffffffffffffffffff1673ffffffffffffffffffffffffffffffffffffffff1681526020019081526020016000206009015460066000828254611c939190612cd0565b925050819055506000600460003373ffffffffffffffffffffffffffffffffffffffff1673ffffffffffffffffffffffffffffffffffffffff1681526020019081526020016000206009018190555080600460003373ffffffffffffffffffffffffffffffffffffffff1673ffffffffffffffffffffffffffffffffffffffff1681526020019081526020016000206006016000828254611d349190612cd0565b925050819055508060056000828254611d4d9190612cd0565b925050819055508060076000828254611d669190612da6565b9250508190555080600460003373ffffffffffffffffffffffffffffffffffffffff1673ffffffffffffffffffffffffffffffffffffffff1681526020019081526020016000206007016000828254611dbf9190612da6565b9250508190555050611ee2565b600260009054906101000a900473ffffffffffffffffffffffffffffffffffffffff1673ffffffffffffffffffffffffffffffffffffffff166323b872dd3330866040518463ffffffff1660e01b8152600401611e2b93929190613029565b6020604051808303816000875af1158015611e4a573d6000803e3d6000fd5b505050506040513d601f19601f82011682018060405250810190611e6e9190612ffc565b508260066000828254611e819190612cd0565b9250508190555082600460003373ffffffffffffffffffffffffffffffffffffffff1673ffffffffffffffffffffffffffffffffffffffff1681526020019081526020016000206009016000828254611eda9190612da6565b925050819055505b5b505050565b600160009054906101000a900473ffffffffffffffffffffffffffffffffffffffff1681565b8060008111611f52576040517f08c379a0000000000000000000000000000000000000000000000000000000008152600401611f4990612ee9565b60405180910390fd5b600460003373ffffffffffffffffffffffffffffffffffffffff1673ffffffffffffffffffffffffffffffffffffffff16815260200190815260200160002060060154821115611fd7576040517f08c379a0000000000000000000000000000000000000000000000000000000008152600401611fce9061310f565b60405180910390fd5b600a60058054611fe79190612d04565b611ff19190612d75565b821115612033576040517f08c379a000000000000000000000000000000000000000000000000000000000815260040161202a906131a1565b60405180910390fd5b6000600460003373ffffffffffffffffffffffffffffffffffffffff1673ffffffffffffffffffffffffffffffffffffffff16815260200190815260200160002060090154146120cd5761208633610fcb565b600460003373ffffffffffffffffffffffffffffffffffffffff1673ffffffffffffffffffffffffffffffffffffffff168152602001908152602001600020600901819055505b81600460003373ffffffffffffffffffffffffffffffffffffffff1673ffffffffffffffffffffffffffffffffffffffff168152602001908152602001600020600601600082825461211f9190612da6565b9250508190555081600460003373ffffffffffffffffffffffffffffffffffffffff1673ffffffffffffffffffffffffffffffffffffffff16815260200190815260200160002060070160008282546121789190612cd0565b9250508190555081600560008282546121919190612da6565b9250508190555081600760008282546121aa9190612cd0565b9250508190555042600460003373ffffffffffffffffffffffffffffffffffffffff1673ffffffffffffffffffffffffffffffffffffffff16815260200190815260200160002060080181905550600260009054906101000a900473ffffffffffffffffffffffffffffffffffffffff1673ffffffffffffffffffffffffffffffffffffffff1663a9059cbb33846040518363ffffffff1660e01b8152600401612255929190612f9b565b6020604051808303816000875af1158015612274573d6000803e3d6000fd5b505050506040513d601f19601f820116820180604052508101906122989190612ffc565b505050565b80600081116122e1576040517f08c379a00000000000000000000000000000000000000000000000000000000081526004016122d890612ee9565b60405180910390fd5b600460003373ffffffffffffffffffffffffffffffffffffffff1673ffffffffffffffffffffffffffffffffffffffff16815260200190815260200160002060030154821115612366576040517f08c379a000000000000000000000000000000000000000000000000000000000815260040161235d90612f7b565b60405180910390fd5b600082600460003373ffffffffffffffffffffffffffffffffffffffff1673ffffffffffffffffffffffffffffffffffffffff168152602001908152602001600020600301546123b69190612da6565b90506123c133611123565b600a60086123ce84610e3b565b6123d89190612d04565b6123e29190612d75565b1015612423576040517f08c379a000000000000000000000000000000000000000000000000000000000815260040161241a90613233565b60405180910390fd5b60006124366124313361092f565b6108ee565b9050600460003373ffffffffffffffffffffffffffffffffffffffff1673ffffffffffffffffffffffffffffffffffffffff1681526020019081526020016000206003015484036124ca576000600460003373ffffffffffffffffffffffffffffffffffffffff1673ffffffffffffffffffffffffffffffffffffffff168152602001908152602001600020600401819055505b6000600460003373ffffffffffffffffffffffffffffffffffffffff1673ffffffffffffffffffffffffffffffffffffffff1681526020019081526020016000206005018190555042600460003373ffffffffffffffffffffffffffffffffffffffff1673ffffffffffffffffffffffffffffffffffffffff16815260200190815260200160002060040181905550600360009054906101000a900473ffffffffffffffffffffffffffffffffffffffff1673ffffffffffffffffffffffffffffffffffffffff166340c10f1933836040518363ffffffff1660e01b81526004016125b6929190612f9b565b600060405180830381600087803b1580156125d057600080fd5b505af11580156125e4573d6000803e3d6000fd5b5050505060003373ffffffffffffffffffffffffffffffffffffffff168560405161260e90612e0b565b60006040518083038185875af1925050503d806000811461264b576040519150601f19603f3d011682016040523d82523d6000602084013e612650565b606091505b5050905080612694576040517f08c379a000000000000000000000000000000000000000000000000000000000815260040161268b90612e7d565b60405180910390fd5b5050505050565b60075481565b6126a9612882565b600073ffffffffffffffffffffffffffffffffffffffff168173ffffffffffffffffffffffffffffffffffffffff1603612718576040517f08c379a000000000000000000000000000000000000000000000000000000000815260040161270f906132c5565b60405180910390fd5b61272181612900565b50565b600080600460008473ffffffffffffffffffffffffffffffffffffffff1673ffffffffffffffffffffffffffffffffffffffff1681526020019081526020016000206001015403612778576000905061287d565b6000600460008473ffffffffffffffffffffffffffffffffffffffff1673ffffffffffffffffffffffffffffffffffffffff16815260200190815260200160002060010154426127c89190612da6565b9050600062030d40600460008673ffffffffffffffffffffffffffffffffffffffff1673ffffffffffffffffffffffffffffffffffffffff1681526020019081526020016000206000015461281d9190612d75565b826128289190612d04565b600460008673ffffffffffffffffffffffffffffffffffffffff1673ffffffffffffffffffffffffffffffffffffffff168152602001908152602001600020600201546128759190612cd0565b905080925050505b919050565b61288a6129c4565b73ffffffffffffffffffffffffffffffffffffffff166128a8610fa2565b73ffffffffffffffffffffffffffffffffffffffff16146128fe576040517f08c379a00000000000000000000000000000000000000000000000000000000081526004016128f590613331565b60405180910390fd5b565b60008060009054906101000a900473ffffffffffffffffffffffffffffffffffffffff169050816000806101000a81548173ffffffffffffffffffffffffffffffffffffffff021916908373ffffffffffffffffffffffffffffffffffffffff1602179055508173ffffffffffffffffffffffffffffffffffffffff168173ffffffffffffffffffffffffffffffffffffffff167f8be0079c531659141344cd1fd0a4f28419497f9722a3daafe3b4186f6b6457e060405160405180910390a35050565b600033905090565b600073ffffffffffffffffffffffffffffffffffffffff82169050919050565b6000819050919050565b6000612a11612a0c612a07846129cc565b6129ec565b6129cc565b9050919050565b6000612a23826129f6565b9050919050565b6000612a3582612a18565b9050919050565b612a4581612a2a565b82525050565b6000602082019050612a606000830184612a3c565b92915050565b600080fd5b6000819050919050565b612a7e81612a6b565b8114612a8957600080fd5b50565b600081359050612a9b81612a75565b92915050565b600060208284031215612ab757612ab6612a66565b5b6000612ac584828501612a8c565b91505092915050565b612ad781612a6b565b82525050565b6000602082019050612af26000830184612ace565b92915050565b6000612b03826129cc565b9050919050565b612b1381612af8565b8114612b1e57600080fd5b50565b600081359050612b3081612b0a565b92915050565b600060208284031215612b4c57612b4b612a66565b5b6000612b5a84828501612b21565b91505092915050565b600061014082019050612b79600083018d612ace565b612b86602083018c612ace565b612b93604083018b612ace565b612ba0606083018a612ace565b612bad6080830189612ace565b612bba60a0830188612ace565b612bc760c0830187612ace565b612bd460e0830186612ace565b612be2610100830185612ace565b612bf0610120830184612ace565b9b9a5050505050505050505050565b612c0881612af8565b82525050565b6000602082019050612c236000830184612bff565b92915050565b6000612c3482612a18565b9050919050565b612c4481612c29565b82525050565b6000602082019050612c5f6000830184612c3b565b92915050565b6000612c7082612a18565b9050919050565b612c8081612c65565b82525050565b6000602082019050612c9b6000830184612c77565b92915050565b7f4e487b7100000000000000000000000000000000000000000000000000000000600052601160045260246000fd5b6000612cdb82612a6b565b9150612ce683612a6b565b9250828201905080821115612cfe57612cfd612ca1565b5b92915050565b6000612d0f82612a6b565b9150612d1a83612a6b565b9250828202612d2881612a6b565b91508282048414831517612d3f57612d3e612ca1565b5b5092915050565b7f4e487b7100000000000000000000000000000000000000000000000000000000600052601260045260246000fd5b6000612d8082612a6b565b9150612d8b83612a6b565b925082612d9b57612d9a612d46565b5b828204905092915050565b6000612db182612a6b565b9150612dbc83612a6b565b9250828203905081811115612dd457612dd3612ca1565b5b92915050565b600081905092915050565b50565b6000612df5600083612dda565b9150612e0082612de5565b600082019050919050565b6000612e1682612de8565b9150819050919050565b600082825260208201905092915050565b7f4661696c656420746f2077697468647261770000000000000000000000000000600082015250565b6000612e67601283612e20565b9150612e7282612e31565b602082019050919050565b60006020820190508181036000830152612e9681612e5a565b9050919050565b7f56616c7565206e6f742061636365707465640000000000000000000000000000600082015250565b6000612ed3601283612e20565b9150612ede82612e9d565b602082019050919050565b60006020820190508181036000830152612f0281612ec6565b9050919050565b7f43616e2774207769746864726177206d6f7265207468616e207768617420796f60008201527f75206465706f7369746564000000000000000000000000000000000000000000602082015250565b6000612f65602b83612e20565b9150612f7082612f09565b604082019050919050565b60006020820190508181036000830152612f9481612f58565b9050919050565b6000604082019050612fb06000830185612bff565b612fbd6020830184612ace565b9392505050565b60008115159050919050565b612fd981612fc4565b8114612fe457600080fd5b50565b600081519050612ff681612fd0565b92915050565b60006020828403121561301257613011612a66565b5b600061302084828501612fe7565b91505092915050565b600060608201905061303e6000830186612bff565b61304b6020830185612bff565b6130586040830184612ace565b949350505050565b6000819050919050565b61307381613060565b811461307e57600080fd5b50565b6000815190506130908161306a565b92915050565b6000602082840312156130ac576130ab612a66565b5b60006130ba84828501613081565b91505092915050565b7f43616e277420626f72726f77206d6f7265207468616e20616c6c6f7765640000600082015250565b60006130f9601e83612e20565b9150613104826130c3565b602082019050919050565b60006020820190508181036000830152613128816130ec565b9050919050565b7f43616e277420626f72726f77206d6f7265207468616e20353025206f6620746860008201527f65204c656e64696e6720506f6f6c000000000000000000000000000000000000602082015250565b600061318b602e83612e20565b91506131968261312f565b604082019050919050565b600060208201905081810360008301526131ba8161317e565b9050919050565b7f43757272656e7420646562742069732061626f766520383025206f6620636f6c60008201527f6c61746572616c2076616c7565206c6566740000000000000000000000000000602082015250565b600061321d603283612e20565b9150613228826131c1565b604082019050919050565b6000602082019050818103600083015261324c81613210565b9050919050565b7f4f776e61626c653a206e6577206f776e657220697320746865207a65726f206160008201527f6464726573730000000000000000000000000000000000000000000000000000602082015250565b60006132af602683612e20565b91506132ba82613253565b604082019050919050565b600060208201905081810360008301526132de816132a2565b9050919050565b7f4f776e61626c653a2063616c6c6572206973206e6f7420746865206f776e6572600082015250565b600061331b602083612e20565b9150613326826132e5565b602082019050919050565b6000602082019050818103600083015261334a8161330e565b905091905056fea2646970667358221220bb57fc1c92256f6760fa97354cab3cf02b7da0053dc8ab0b4e718daaf4cb1abd64736f6c63430008130033",
  "linkReferences": {},
  "deployedLinkReferences": {}
}