{
  "_format": "hh-sol-artifact-1",
  "contractName": "LendingProtocol",
  "sourceName": "contracts/LendingProtocol.sol",
  "abi": [
    {
      "inputs": [],
      "stateMutability": "nonpayable",
      "type": "constructor"
    },
    {
      "anonymous": false,
      "inputs": [
        {
          "indexed": true,
          "internalType": "address",
          "name": "previousOwner",
          "type": "address"
        },
        {
          "indexed": true,
          "internalType": "address",
          "name": "newOwner",
          "type": "address"
        }
      ],
      "name": "OwnershipTransferred",
      "type": "event"
    },
    {
      "inputs": [],
      "name": "borrowTV",
      "outputs": [
        {
          "internalType": "uint256",
          "name": "",
          "type": "uint256"
        }
      ],
      "stateMutability": "view",
      "type": "function"
    },
    {
      "inputs": [
        {
          "internalType": "uint256",
          "name": "amount",
          "type": "uint256"
        }
      ],
      "name": "borrowUSDC_B",
      "outputs": [],
      "stateMutability": "nonpayable",
      "type": "function"
    },
    {
      "inputs": [],
      "name": "depositETH_C",
      "outputs": [],
      "stateMutability": "payable",
      "type": "function"
    },
    {
      "inputs": [
        {
          "internalType": "uint256",
          "name": "amount",
          "type": "uint256"
        }
      ],
      "name": "depositUSDC_L",
      "outputs": [],
      "stateMutability": "nonpayable",
      "type": "function"
    },
    {
      "inputs": [],
      "name": "feesPool",
      "outputs": [
        {
          "internalType": "uint256",
          "name": "",
          "type": "uint256"
        }
      ],
      "stateMutability": "view",
      "type": "function"
    },
    {
      "inputs": [],
      "name": "g6Token",
      "outputs": [
        {
          "internalType": "contract G6Token",
          "name": "",
          "type": "address"
        }
      ],
      "stateMutability": "view",
      "type": "function"
    },
    {
      "inputs": [],
      "name": "getETHPrice",
      "outputs": [
        {
          "internalType": "uint256",
          "name": "ethPrice",
          "type": "uint256"
        }
      ],
      "stateMutability": "view",
      "type": "function"
    },
    {
      "inputs": [
        {
          "internalType": "uint256",
          "name": "amount",
          "type": "uint256"
        }
      ],
      "name": "getG6TValue_USDC",
      "outputs": [
        {
          "internalType": "uint256",
          "name": "",
          "type": "uint256"
        }
      ],
      "stateMutability": "view",
      "type": "function"
    },
    {
      "inputs": [
        {
          "internalType": "uint256",
          "name": "amount",
          "type": "uint256"
        }
      ],
      "name": "getUSDCValue_ETH",
      "outputs": [
        {
          "internalType": "uint256",
          "name": "",
          "type": "uint256"
        }
      ],
      "stateMutability": "view",
      "type": "function"
    },
    {
      "inputs": [],
      "name": "lendingPool",
      "outputs": [
        {
          "internalType": "uint256",
          "name": "",
          "type": "uint256"
        }
      ],
      "stateMutability": "view",
      "type": "function"
    },
    {
      "inputs": [],
      "name": "oracleContract",
      "outputs": [
        {
          "internalType": "contract CallOracle",
          "name": "",
          "type": "address"
        }
      ],
      "stateMutability": "view",
      "type": "function"
    },
    {
      "inputs": [],
      "name": "owner",
      "outputs": [
        {
          "internalType": "address",
          "name": "",
          "type": "address"
        }
      ],
      "stateMutability": "view",
      "type": "function"
    },
    {
      "inputs": [],
      "name": "renounceOwnership",
      "outputs": [],
      "stateMutability": "nonpayable",
      "type": "function"
    },
    {
      "inputs": [
        {
          "internalType": "uint256",
          "name": "amount",
          "type": "uint256"
        }
      ],
      "name": "repayUSDC_B",
      "outputs": [],
      "stateMutability": "nonpayable",
      "type": "function"
    },
    {
      "inputs": [
        {
          "internalType": "address",
          "name": "account",
          "type": "address"
        }
      ],
      "name": "totalDebtOf",
      "outputs": [
        {
          "internalType": "uint256",
          "name": "totalDebt",
          "type": "uint256"
        }
      ],
      "stateMutability": "view",
      "type": "function"
    },
    {
      "inputs": [
        {
          "internalType": "address",
          "name": "account",
          "type": "address"
        }
      ],
      "name": "totalFeeOf",
      "outputs": [
        {
          "internalType": "uint256",
          "name": "tempFee",
          "type": "uint256"
        }
      ],
      "stateMutability": "view",
      "type": "function"
    },
    {
      "inputs": [
        {
          "internalType": "address",
          "name": "account",
          "type": "address"
        }
      ],
      "name": "totalUSDCRewards_C",
      "outputs": [
        {
          "internalType": "uint256",
          "name": "",
          "type": "uint256"
        }
      ],
      "stateMutability": "view",
      "type": "function"
    },
    {
      "inputs": [
        {
          "internalType": "address",
          "name": "account",
          "type": "address"
        }
      ],
      "name": "totalUSDCRewards_L",
      "outputs": [
        {
          "internalType": "uint256",
          "name": "",
          "type": "uint256"
        }
      ],
      "stateMutability": "view",
      "type": "function"
    },
    {
      "inputs": [
        {
          "internalType": "address",
          "name": "newOwner",
          "type": "address"
        }
      ],
      "name": "transferOwnership",
      "outputs": [],
      "stateMutability": "nonpayable",
      "type": "function"
    },
    {
      "inputs": [],
      "name": "usdcToken",
      "outputs": [
        {
          "internalType": "contract IERC20",
          "name": "",
          "type": "address"
        }
      ],
      "stateMutability": "view",
      "type": "function"
    },
    {
      "inputs": [
        {
          "internalType": "address",
          "name": "",
          "type": "address"
        }
      ],
      "name": "user",
      "outputs": [
        {
          "internalType": "uint256",
          "name": "depositL_USDC",
          "type": "uint256"
        },
        {
          "internalType": "uint256",
          "name": "time_depositL_USDC",
          "type": "uint256"
        },
        {
          "internalType": "uint256",
          "name": "reward_depositL_USDC",
          "type": "uint256"
        },
        {
          "internalType": "uint256",
          "name": "depositC_ETH",
          "type": "uint256"
        },
        {
          "internalType": "uint256",
          "name": "time_depositC_ETH",
          "type": "uint256"
        },
        {
          "internalType": "uint256",
          "name": "reward_depositC_ETH",
          "type": "uint256"
        },
        {
          "internalType": "uint256",
          "name": "availableB_USDC",
          "type": "uint256"
        },
        {
          "internalType": "uint256",
          "name": "withdrawB_USDC",
          "type": "uint256"
        },
        {
          "internalType": "uint256",
          "name": "time_withdrawB_USDC",
          "type": "uint256"
        },
        {
          "internalType": "uint256",
          "name": "interestFee",
          "type": "uint256"
        }
      ],
      "stateMutability": "view",
      "type": "function"
    },
    {
      "inputs": [
        {
          "internalType": "uint256",
          "name": "amount",
          "type": "uint256"
        }
      ],
      "name": "withdrawETH_C",
      "outputs": [],
      "stateMutability": "nonpayable",
      "type": "function"
    },
    {
      "inputs": [
        {
          "internalType": "uint256",
          "name": "amount",
          "type": "uint256"
        }
      ],
      "name": "withdrawUSDC_L",
      "outputs": [],
      "stateMutability": "nonpayable",
      "type": "function"
    },
    {
      "stateMutability": "payable",
      "type": "receive"
    }
  ],
  "bytecode": "0x60806040523480156200001157600080fd5b5062000032620000266200013760201b60201c565b6200013f60201b60201c565b73b46b5c88464e2dcee987f159f6cf1066b52a360d600360006101000a81548173ffffffffffffffffffffffffffffffffffffffff021916908373ffffffffffffffffffffffffffffffffffffffff16021790555073d17ecb6579cad73ae27596929e13b619ba9060a5600160006101000a81548173ffffffffffffffffffffffffffffffffffffffff021916908373ffffffffffffffffffffffffffffffffffffffff1602179055507394a9d9ac8a22534e3faca9f4e7f2e2cf85d5e4c8600260006101000a81548173ffffffffffffffffffffffffffffffffffffffff021916908373ffffffffffffffffffffffffffffffffffffffff16021790555062000203565b600033905090565b60008060009054906101000a900473ffffffffffffffffffffffffffffffffffffffff169050816000806101000a81548173ffffffffffffffffffffffffffffffffffffffff021916908373ffffffffffffffffffffffffffffffffffffffff1602179055508173ffffffffffffffffffffffffffffffffffffffff168173ffffffffffffffffffffffffffffffffffffffff167f8be0079c531659141344cd1fd0a4f28419497f9722a3daafe3b4186f6b6457e060405160405180910390a35050565b6131c480620002136000396000f3fe6080604052600436106101445760003560e01c80639f2b2833116100b6578063bece75321161006f578063bece75321461046d578063cdd6f21b14610498578063d2b9c926146104c1578063db10adb0146104ea578063f2fde38b14610515578063f6ae68891461053e57610153565b80639f2b28331461035d578063a0989e3e1461039a578063a59a9973146103c3578063a607a8d9146103ee578063b7bd72c914610419578063bdf8781c1461044457610153565b80636412b21a116101085780636412b21a146102305780636b2596901461026d578063715018a61461029857806381e7e20e146102af5780638da5cb5b146102f55780639219e0451461032057610153565b806311eac855146101585780631ecddf54146101835780632947b5161461018d5780632fc80872146101ca5780635acf04a11461020757610153565b366101535761015161057b565b005b600080fd5b34801561016457600080fd5b5061016d6107c5565b60405161017a9190612888565b60405180910390f35b61018b61057b565b005b34801561019957600080fd5b506101b460048036038101906101af91906128de565b6107eb565b6040516101c1919061291a565b60405180910390f35b3480156101d657600080fd5b506101f160048036038101906101ec9190612973565b61082c565b6040516101fe919061291a565b60405180910390f35b34801561021357600080fd5b5061022e600480360381019061022991906128de565b610992565b005b34801561023c57600080fd5b50610257600480360381019061025291906128de565b610d3d565b604051610264919061291a565b60405180910390f35b34801561027957600080fd5b50610282610d6c565b60405161028f919061291a565b60405180910390f35b3480156102a457600080fd5b506102ad610d72565b005b3480156102bb57600080fd5b506102d660048036038101906102d19190612973565b610d86565b6040516102ec9a999897969594939291906129a0565b60405180910390f35b34801561030157600080fd5b5061030a610dda565b6040516103179190612a4b565b60405180910390f35b34801561032c57600080fd5b5061034760048036038101906103429190612973565b610e03565b604051610354919061291a565b60405180910390f35b34801561036957600080fd5b50610384600480360381019061037f9190612973565b610f5b565b604051610391919061291a565b60405180910390f35b3480156103a657600080fd5b506103c160048036038101906103bc91906128de565b61100d565b005b3480156103cf57600080fd5b506103d861142f565b6040516103e5919061291a565b60405180910390f35b3480156103fa57600080fd5b50610403611435565b604051610410919061291a565b60405180910390f35b34801561042557600080fd5b5061042e6114d9565b60405161043b9190612a87565b60405180910390f35b34801561045057600080fd5b5061046b600480360381019061046691906128de565b6114ff565b005b34801561047957600080fd5b50610482611d20565b60405161048f9190612ac3565b60405180910390f35b3480156104a457600080fd5b506104bf60048036038101906104ba91906128de565b611d46565b005b3480156104cd57600080fd5b506104e860048036038101906104e391906128de565b6120d5565b005b3480156104f657600080fd5b506104ff6124d8565b60405161050c919061291a565b60405180910390f35b34801561052157600080fd5b5061053c60048036038101906105379190612973565b6124de565b005b34801561054a57600080fd5b5061056560048036038101906105609190612973565b612561565b604051610572919061291a565b60405180910390f35b6000600460003373ffffffffffffffffffffffffffffffffffffffff1673ffffffffffffffffffffffffffffffffffffffff1681526020019081526020016000206004015414610627576105ce3361082c565b600460003373ffffffffffffffffffffffffffffffffffffffff1673ffffffffffffffffffffffffffffffffffffffff168152602001908152602001600020600501600082825461061f9190612b0d565b925050819055505b42600460003373ffffffffffffffffffffffffffffffffffffffff1673ffffffffffffffffffffffffffffffffffffffff1681526020019081526020016000206004018190555034600460003373ffffffffffffffffffffffffffffffffffffffff1673ffffffffffffffffffffffffffffffffffffffff16815260200190815260200160002060030160008282546106c09190612b0d565b925050819055506000600a6008610718600460003373ffffffffffffffffffffffffffffffffffffffff1673ffffffffffffffffffffffffffffffffffffffff16815260200190815260200160002060030154610d3d565b6107229190612b41565b61072c9190612bb2565b9050600460003373ffffffffffffffffffffffffffffffffffffffff1673ffffffffffffffffffffffffffffffffffffffff168152602001908152602001600020600701548161077c9190612be3565b600460003373ffffffffffffffffffffffffffffffffffffffff1673ffffffffffffffffffffffffffffffffffffffff1681526020019081526020016000206006018190555050565b600260009054906101000a900473ffffffffffffffffffffffffffffffffffffffff1681565b6000806107f6611435565b612710846108049190612b41565b61080e9190612bb2565b9050670de0b6b3a7640000816108249190612b41565b915050919050565b600080600460008473ffffffffffffffffffffffffffffffffffffffff1673ffffffffffffffffffffffffffffffffffffffff1681526020019081526020016000206004015403610880576000905061098d565b6000600460008473ffffffffffffffffffffffffffffffffffffffff1673ffffffffffffffffffffffffffffffffffffffff16815260200190815260200160002060040154426108d09190612be3565b9050600062f099c0610923600460008773ffffffffffffffffffffffffffffffffffffffff1673ffffffffffffffffffffffffffffffffffffffff16815260200190815260200160002060030154610d3d565b61092d9190612bb2565b826109389190612b41565b600460008673ffffffffffffffffffffffffffffffffffffffff1673ffffffffffffffffffffffffffffffffffffffff168152602001908152602001600020600501546109859190612b0d565b905080925050505b919050565b80600081116109d6576040517f08c379a00000000000000000000000000000000000000000000000000000000081526004016109cd90612c74565b60405180910390fd5b600460003373ffffffffffffffffffffffffffffffffffffffff1673ffffffffffffffffffffffffffffffffffffffff16815260200190815260200160002060000154821115610a5b576040517f08c379a0000000000000000000000000000000000000000000000000000000008152600401610a5290612d06565b60405180910390fd5b6000610a6e610a6933612561565b6107eb565b9050600460003373ffffffffffffffffffffffffffffffffffffffff1673ffffffffffffffffffffffffffffffffffffffff168152602001908152602001600020600001548303610b06576000600460003373ffffffffffffffffffffffffffffffffffffffff1673ffffffffffffffffffffffffffffffffffffffff16815260200190815260200160002060010181905550610b4e565b42600460003373ffffffffffffffffffffffffffffffffffffffff1673ffffffffffffffffffffffffffffffffffffffff168152602001908152602001600020600101819055505b82600460003373ffffffffffffffffffffffffffffffffffffffff1673ffffffffffffffffffffffffffffffffffffffff1681526020019081526020016000206000016000828254610ba09190612be3565b925050819055508260056000828254610bb99190612be3565b925050819055506000600460003373ffffffffffffffffffffffffffffffffffffffff1673ffffffffffffffffffffffffffffffffffffffff16815260200190815260200160002060020181905550600260009054906101000a900473ffffffffffffffffffffffffffffffffffffffff1673ffffffffffffffffffffffffffffffffffffffff1663a9059cbb33856040518363ffffffff1660e01b8152600401610c65929190612d26565b6020604051808303816000875af1158015610c84573d6000803e3d6000fd5b505050506040513d601f19601f82011682018060405250810190610ca89190612d87565b50600360009054906101000a900473ffffffffffffffffffffffffffffffffffffffff1673ffffffffffffffffffffffffffffffffffffffff166340c10f1933836040518363ffffffff1660e01b8152600401610d06929190612d26565b600060405180830381600087803b158015610d2057600080fd5b505af1158015610d34573d6000803e3d6000fd5b50505050505050565b6000670de0b6b3a7640000610d50611435565b83610d5b9190612b41565b610d659190612bb2565b9050919050565b60065481565b610d7a6126bf565b610d84600061273d565b565b6004602052806000526040600020600091509050806000015490806001015490806002015490806003015490806004015490806005015490806006015490806007015490806008015490806009015490508a565b60008060009054906101000a900473ffffffffffffffffffffffffffffffffffffffff16905090565b600080600460008473ffffffffffffffffffffffffffffffffffffffff1673ffffffffffffffffffffffffffffffffffffffff1681526020019081526020016000206008015403610e575760009050610f56565b6000600460008473ffffffffffffffffffffffffffffffffffffffff1673ffffffffffffffffffffffffffffffffffffffff1681526020019081526020016000206008015442610ea79190612be3565b905062603d80600460008573ffffffffffffffffffffffffffffffffffffffff1673ffffffffffffffffffffffffffffffffffffffff16815260200190815260200160002060070154610efa9190612bb2565b81610f059190612b41565b600460008573ffffffffffffffffffffffffffffffffffffffff1673ffffffffffffffffffffffffffffffffffffffff16815260200190815260200160002060090154610f529190612b0d565b9150505b919050565b600080600460008473ffffffffffffffffffffffffffffffffffffffff1673ffffffffffffffffffffffffffffffffffffffff1681526020019081526020016000206008015403610faf5760009050611008565b610fb882610e03565b600460008473ffffffffffffffffffffffffffffffffffffffff1673ffffffffffffffffffffffffffffffffffffffff168152602001908152602001600020600701546110059190612b0d565b90505b919050565b8060008111611051576040517f08c379a000000000000000000000000000000000000000000000000000000000815260040161104890612c74565b60405180910390fd5b611059610dda565b73ffffffffffffffffffffffffffffffffffffffff163373ffffffffffffffffffffffffffffffffffffffff160361113357600260009054906101000a900473ffffffffffffffffffffffffffffffffffffffff1673ffffffffffffffffffffffffffffffffffffffff166323b872dd3330856040518463ffffffff1660e01b81526004016110ea93929190612db4565b6020604051808303816000875af1158015611109573d6000803e3d6000fd5b505050506040513d601f19601f8201168201806040525081019061112d9190612d87565b506113b9565b6000600460003373ffffffffffffffffffffffffffffffffffffffff1673ffffffffffffffffffffffffffffffffffffffff16815260200190815260200160002060010154146112cd5761118633612561565b600460003373ffffffffffffffffffffffffffffffffffffffff1673ffffffffffffffffffffffffffffffffffffffff16815260200190815260200160002060020160008282546111d79190612b0d565b92505081905550600260009054906101000a900473ffffffffffffffffffffffffffffffffffffffff1673ffffffffffffffffffffffffffffffffffffffff166323b872dd3330856040518463ffffffff1660e01b815260040161123d93929190612db4565b6020604051808303816000875af115801561125c573d6000803e3d6000fd5b505050506040513d601f19601f820116820180604052508101906112809190612d87565b5042600460003373ffffffffffffffffffffffffffffffffffffffff1673ffffffffffffffffffffffffffffffffffffffff168152602001908152602001600020600101819055506113b8565b600260009054906101000a900473ffffffffffffffffffffffffffffffffffffffff1673ffffffffffffffffffffffffffffffffffffffff166323b872dd3330856040518463ffffffff1660e01b815260040161132c93929190612db4565b6020604051808303816000875af115801561134b573d6000803e3d6000fd5b505050506040513d601f19601f8201168201806040525081019061136f9190612d87565b5042600460003373ffffffffffffffffffffffffffffffffffffffff1673ffffffffffffffffffffffffffffffffffffffff168152602001908152602001600020600101819055505b5b81600460003373ffffffffffffffffffffffffffffffffffffffff1673ffffffffffffffffffffffffffffffffffffffff168152602001908152602001600020600001600082825461140b9190612b0d565b9250508190555081600560008282546114249190612b0d565b925050819055505050565b60055481565b60006064600160009054906101000a900473ffffffffffffffffffffffffffffffffffffffff1673ffffffffffffffffffffffffffffffffffffffff1663a0a8045e6040518163ffffffff1660e01b8152600401602060405180830381865afa1580156114a6573d6000803e3d6000fd5b505050506040513d601f19601f820116820180604052508101906114ca9190612e21565b6114d49190612bb2565b905090565b600360009054906101000a900473ffffffffffffffffffffffffffffffffffffffff1681565b8060008111611543576040517f08c379a000000000000000000000000000000000000000000000000000000000815260040161153a90612c74565b60405180910390fd5b600061154e33610f5b565b905061155933610e03565b600460003373ffffffffffffffffffffffffffffffffffffffff1673ffffffffffffffffffffffffffffffffffffffff168152602001908152602001600020600901819055508083106118f257600260009054906101000a900473ffffffffffffffffffffffffffffffffffffffff1673ffffffffffffffffffffffffffffffffffffffff166323b872dd3330846040518463ffffffff1660e01b815260040161160593929190612db4565b6020604051808303816000875af1158015611624573d6000803e3d6000fd5b505050506040513d601f19601f820116820180604052508101906116489190612d87565b50600a6008611698600460003373ffffffffffffffffffffffffffffffffffffffff1673ffffffffffffffffffffffffffffffffffffffff16815260200190815260200160002060030154610d3d565b6116a29190612b41565b6116ac9190612bb2565b600460003373ffffffffffffffffffffffffffffffffffffffff1673ffffffffffffffffffffffffffffffffffffffff16815260200190815260200160002060060160008282546116fd9190612b0d565b92505081905550600460003373ffffffffffffffffffffffffffffffffffffffff1673ffffffffffffffffffffffffffffffffffffffff16815260200190815260200160002060070154600560008282546117589190612b0d565b92505081905550600460003373ffffffffffffffffffffffffffffffffffffffff1673ffffffffffffffffffffffffffffffffffffffff16815260200190815260200160002060090154600660008282546117b39190612b0d565b92505081905550600460003373ffffffffffffffffffffffffffffffffffffffff1673ffffffffffffffffffffffffffffffffffffffff168152602001908152602001600020600701546007600082825461180e9190612be3565b925050819055506000600460003373ffffffffffffffffffffffffffffffffffffffff1673ffffffffffffffffffffffffffffffffffffffff168152602001908152602001600020600701819055506000600460003373ffffffffffffffffffffffffffffffffffffffff1673ffffffffffffffffffffffffffffffffffffffff168152602001908152602001600020600901819055506000600460003373ffffffffffffffffffffffffffffffffffffffff1673ffffffffffffffffffffffffffffffffffffffff16815260200190815260200160002060080181905550611d1b565b600460003373ffffffffffffffffffffffffffffffffffffffff1673ffffffffffffffffffffffffffffffffffffffff168152602001908152602001600020600901548310611c0457600260009054906101000a900473ffffffffffffffffffffffffffffffffffffffff1673ffffffffffffffffffffffffffffffffffffffff166323b872dd3330866040518463ffffffff1660e01b815260040161199a93929190612db4565b6020604051808303816000875af11580156119b9573d6000803e3d6000fd5b505050506040513d601f19601f820116820180604052508101906119dd9190612d87565b5042600460003373ffffffffffffffffffffffffffffffffffffffff1673ffffffffffffffffffffffffffffffffffffffff168152602001908152602001600020600801819055506000600460003373ffffffffffffffffffffffffffffffffffffffff1673ffffffffffffffffffffffffffffffffffffffff1681526020019081526020016000206009015484611a759190612be3565b9050600460003373ffffffffffffffffffffffffffffffffffffffff1673ffffffffffffffffffffffffffffffffffffffff1681526020019081526020016000206009015460066000828254611acb9190612b0d565b925050819055506000600460003373ffffffffffffffffffffffffffffffffffffffff1673ffffffffffffffffffffffffffffffffffffffff1681526020019081526020016000206009018190555080600460003373ffffffffffffffffffffffffffffffffffffffff1673ffffffffffffffffffffffffffffffffffffffff1681526020019081526020016000206006016000828254611b6c9190612b0d565b925050819055508060056000828254611b859190612b0d565b925050819055508060076000828254611b9e9190612be3565b9250508190555080600460003373ffffffffffffffffffffffffffffffffffffffff1673ffffffffffffffffffffffffffffffffffffffff1681526020019081526020016000206007016000828254611bf79190612be3565b9250508190555050611d1a565b600260009054906101000a900473ffffffffffffffffffffffffffffffffffffffff1673ffffffffffffffffffffffffffffffffffffffff166323b872dd3330866040518463ffffffff1660e01b8152600401611c6393929190612db4565b6020604051808303816000875af1158015611c82573d6000803e3d6000fd5b505050506040513d601f19601f82011682018060405250810190611ca69190612d87565b508260066000828254611cb99190612b0d565b9250508190555082600460003373ffffffffffffffffffffffffffffffffffffffff1673ffffffffffffffffffffffffffffffffffffffff1681526020019081526020016000206009016000828254611d129190612be3565b925050819055505b5b505050565b600160009054906101000a900473ffffffffffffffffffffffffffffffffffffffff1681565b8060008111611d8a576040517f08c379a0000000000000000000000000000000000000000000000000000000008152600401611d8190612c74565b60405180910390fd5b600460003373ffffffffffffffffffffffffffffffffffffffff1673ffffffffffffffffffffffffffffffffffffffff16815260200190815260200160002060060154821115611e0f576040517f08c379a0000000000000000000000000000000000000000000000000000000008152600401611e0690612e9a565b60405180910390fd5b600a60058054611e1f9190612b41565b611e299190612bb2565b821115611e6b576040517f08c379a0000000000000000000000000000000000000000000000000000000008152600401611e6290612f2c565b60405180910390fd5b6000600460003373ffffffffffffffffffffffffffffffffffffffff1673ffffffffffffffffffffffffffffffffffffffff1681526020019081526020016000206009015414611f0557611ebe33610e03565b600460003373ffffffffffffffffffffffffffffffffffffffff1673ffffffffffffffffffffffffffffffffffffffff168152602001908152602001600020600901819055505b81600460003373ffffffffffffffffffffffffffffffffffffffff1673ffffffffffffffffffffffffffffffffffffffff1681526020019081526020016000206006016000828254611f579190612be3565b9250508190555081600460003373ffffffffffffffffffffffffffffffffffffffff1673ffffffffffffffffffffffffffffffffffffffff1681526020019081526020016000206007016000828254611fb09190612b0d565b925050819055508160056000828254611fc99190612be3565b925050819055508160076000828254611fe29190612b0d565b9250508190555042600460003373ffffffffffffffffffffffffffffffffffffffff1673ffffffffffffffffffffffffffffffffffffffff16815260200190815260200160002060080181905550600260009054906101000a900473ffffffffffffffffffffffffffffffffffffffff1673ffffffffffffffffffffffffffffffffffffffff1663a9059cbb33846040518363ffffffff1660e01b815260040161208d929190612d26565b6020604051808303816000875af11580156120ac573d6000803e3d6000fd5b505050506040513d601f19601f820116820180604052508101906120d09190612d87565b505050565b8060008111612119576040517f08c379a000000000000000000000000000000000000000000000000000000000815260040161211090612c74565b60405180910390fd5b600460003373ffffffffffffffffffffffffffffffffffffffff1673ffffffffffffffffffffffffffffffffffffffff1681526020019081526020016000206003015482111561219e576040517f08c379a000000000000000000000000000000000000000000000000000000000815260040161219590612d06565b60405180910390fd5b600082600460003373ffffffffffffffffffffffffffffffffffffffff1673ffffffffffffffffffffffffffffffffffffffff168152602001908152602001600020600301546121ee9190612be3565b90506121f933610f5b565b600a600861220684610d3d565b6122109190612b41565b61221a9190612bb2565b101561225b576040517f08c379a000000000000000000000000000000000000000000000000000000000815260040161225290612fbe565b60405180910390fd5b600061226e6122693361082c565b6107eb565b9050600460003373ffffffffffffffffffffffffffffffffffffffff1673ffffffffffffffffffffffffffffffffffffffff168152602001908152602001600020600301548403612306576000600460003373ffffffffffffffffffffffffffffffffffffffff1673ffffffffffffffffffffffffffffffffffffffff1681526020019081526020016000206004018190555061234e565b42600460003373ffffffffffffffffffffffffffffffffffffffff1673ffffffffffffffffffffffffffffffffffffffff168152602001908152602001600020600401819055505b6000600460003373ffffffffffffffffffffffffffffffffffffffff1673ffffffffffffffffffffffffffffffffffffffff16815260200190815260200160002060050181905550600360009054906101000a900473ffffffffffffffffffffffffffffffffffffffff1673ffffffffffffffffffffffffffffffffffffffff166340c10f1933836040518363ffffffff1660e01b81526004016123f3929190612d26565b600060405180830381600087803b15801561240d57600080fd5b505af1158015612421573d6000803e3d6000fd5b5050505060003373ffffffffffffffffffffffffffffffffffffffff168560405161244b9061300f565b60006040518083038185875af1925050503d8060008114612488576040519150601f19603f3d011682016040523d82523d6000602084013e61248d565b606091505b50509050806124d1576040517f08c379a00000000000000000000000000000000000000000000000000000000081526004016124c890613070565b60405180910390fd5b5050505050565b60075481565b6124e66126bf565b600073ffffffffffffffffffffffffffffffffffffffff168173ffffffffffffffffffffffffffffffffffffffff1603612555576040517f08c379a000000000000000000000000000000000000000000000000000000000815260040161254c90613102565b60405180910390fd5b61255e8161273d565b50565b600080600460008473ffffffffffffffffffffffffffffffffffffffff1673ffffffffffffffffffffffffffffffffffffffff16815260200190815260200160002060010154036125b557600090506126ba565b6000600460008473ffffffffffffffffffffffffffffffffffffffff1673ffffffffffffffffffffffffffffffffffffffff16815260200190815260200160002060010154426126059190612be3565b9050600062a06680600460008673ffffffffffffffffffffffffffffffffffffffff1673ffffffffffffffffffffffffffffffffffffffff1681526020019081526020016000206000015461265a9190612bb2565b826126659190612b41565b600460008673ffffffffffffffffffffffffffffffffffffffff1673ffffffffffffffffffffffffffffffffffffffff168152602001908152602001600020600201546126b29190612b0d565b905080925050505b919050565b6126c7612801565b73ffffffffffffffffffffffffffffffffffffffff166126e5610dda565b73ffffffffffffffffffffffffffffffffffffffff161461273b576040517f08c379a00000000000000000000000000000000000000000000000000000000081526004016127329061316e565b60405180910390fd5b565b60008060009054906101000a900473ffffffffffffffffffffffffffffffffffffffff169050816000806101000a81548173ffffffffffffffffffffffffffffffffffffffff021916908373ffffffffffffffffffffffffffffffffffffffff1602179055508173ffffffffffffffffffffffffffffffffffffffff168173ffffffffffffffffffffffffffffffffffffffff167f8be0079c531659141344cd1fd0a4f28419497f9722a3daafe3b4186f6b6457e060405160405180910390a35050565b600033905090565b600073ffffffffffffffffffffffffffffffffffffffff82169050919050565b6000819050919050565b600061284e61284961284484612809565b612829565b612809565b9050919050565b600061286082612833565b9050919050565b600061287282612855565b9050919050565b61288281612867565b82525050565b600060208201905061289d6000830184612879565b92915050565b600080fd5b6000819050919050565b6128bb816128a8565b81146128c657600080fd5b50565b6000813590506128d8816128b2565b92915050565b6000602082840312156128f4576128f36128a3565b5b6000612902848285016128c9565b91505092915050565b612914816128a8565b82525050565b600060208201905061292f600083018461290b565b92915050565b600061294082612809565b9050919050565b61295081612935565b811461295b57600080fd5b50565b60008135905061296d81612947565b92915050565b600060208284031215612989576129886128a3565b5b60006129978482850161295e565b91505092915050565b6000610140820190506129b6600083018d61290b565b6129c3602083018c61290b565b6129d0604083018b61290b565b6129dd606083018a61290b565b6129ea608083018961290b565b6129f760a083018861290b565b612a0460c083018761290b565b612a1160e083018661290b565b612a1f61010083018561290b565b612a2d61012083018461290b565b9b9a5050505050505050505050565b612a4581612935565b82525050565b6000602082019050612a606000830184612a3c565b92915050565b6000612a7182612855565b9050919050565b612a8181612a66565b82525050565b6000602082019050612a9c6000830184612a78565b92915050565b6000612aad82612855565b9050919050565b612abd81612aa2565b82525050565b6000602082019050612ad86000830184612ab4565b92915050565b7f4e487b7100000000000000000000000000000000000000000000000000000000600052601160045260246000fd5b6000612b18826128a8565b9150612b23836128a8565b9250828201905080821115612b3b57612b3a612ade565b5b92915050565b6000612b4c826128a8565b9150612b57836128a8565b9250828202612b65816128a8565b91508282048414831517612b7c57612b7b612ade565b5b5092915050565b7f4e487b7100000000000000000000000000000000000000000000000000000000600052601260045260246000fd5b6000612bbd826128a8565b9150612bc8836128a8565b925082612bd857612bd7612b83565b5b828204905092915050565b6000612bee826128a8565b9150612bf9836128a8565b9250828203905081811115612c1157612c10612ade565b5b92915050565b600082825260208201905092915050565b7f56616c7565206e6f742061636365707465640000000000000000000000000000600082015250565b6000612c5e601283612c17565b9150612c6982612c28565b602082019050919050565b60006020820190508181036000830152612c8d81612c51565b9050919050565b7f43616e2774207769746864726177206d6f7265207468616e207768617420796f60008201527f75206465706f7369746564000000000000000000000000000000000000000000602082015250565b6000612cf0602b83612c17565b9150612cfb82612c94565b604082019050919050565b60006020820190508181036000830152612d1f81612ce3565b9050919050565b6000604082019050612d3b6000830185612a3c565b612d48602083018461290b565b9392505050565b60008115159050919050565b612d6481612d4f565b8114612d6f57600080fd5b50565b600081519050612d8181612d5b565b92915050565b600060208284031215612d9d57612d9c6128a3565b5b6000612dab84828501612d72565b91505092915050565b6000606082019050612dc96000830186612a3c565b612dd66020830185612a3c565b612de3604083018461290b565b949350505050565b6000819050919050565b612dfe81612deb565b8114612e0957600080fd5b50565b600081519050612e1b81612df5565b92915050565b600060208284031215612e3757612e366128a3565b5b6000612e4584828501612e0c565b91505092915050565b7f43616e277420626f72726f77206d6f7265207468616e20616c6c6f7765640000600082015250565b6000612e84601e83612c17565b9150612e8f82612e4e565b602082019050919050565b60006020820190508181036000830152612eb381612e77565b9050919050565b7f43616e277420626f72726f77206d6f7265207468616e20353025206f6620746860008201527f65204c656e64696e6720506f6f6c000000000000000000000000000000000000602082015250565b6000612f16602e83612c17565b9150612f2182612eba565b604082019050919050565b60006020820190508181036000830152612f4581612f09565b9050919050565b7f43757272656e7420646562742069732061626f766520383025206f6620636f6c60008201527f6c61746572616c2076616c7565206c6566740000000000000000000000000000602082015250565b6000612fa8603283612c17565b9150612fb382612f4c565b604082019050919050565b60006020820190508181036000830152612fd781612f9b565b9050919050565b600081905092915050565b50565b6000612ff9600083612fde565b915061300482612fe9565b600082019050919050565b600061301a82612fec565b9150819050919050565b7f4661696c656420746f2077697468647261770000000000000000000000000000600082015250565b600061305a601283612c17565b915061306582613024565b602082019050919050565b600060208201905081810360008301526130898161304d565b9050919050565b7f4f776e61626c653a206e6577206f776e657220697320746865207a65726f206160008201527f6464726573730000000000000000000000000000000000000000000000000000602082015250565b60006130ec602683612c17565b91506130f782613090565b604082019050919050565b6000602082019050818103600083015261311b816130df565b9050919050565b7f4f776e61626c653a2063616c6c6572206973206e6f7420746865206f776e6572600082015250565b6000613158602083612c17565b915061316382613122565b602082019050919050565b600060208201905081810360008301526131878161314b565b905091905056fea26469706673582212203a54ba5123143cf9828d124b55809e81aafe99aaa59488c6e203291e8bceaf4564736f6c63430008130033",
  "linkReferences": {},
  "deployedLinkReferences": {}
}