{
  "_format": "hh-sol-artifact-1",
  "contractName": "LendingPlatform",
  "sourceName": "contracts/LendingPlatform.sol",
  "abi": [
    {
      "inputs": [],
      "stateMutability": "nonpayable",
      "type": "constructor"
    },
    {
      "anonymous": false,
      "inputs": [
        {
          "indexed": true,
          "internalType": "address",
          "name": "previousOwner",
          "type": "address"
        },
        {
          "indexed": true,
          "internalType": "address",
          "name": "newOwner",
          "type": "address"
        }
      ],
      "name": "OwnershipTransferred",
      "type": "event"
    },
    {
      "inputs": [
        {
          "internalType": "address",
          "name": "_addr",
          "type": "address"
        }
      ],
      "name": "addAddressIf",
      "outputs": [],
      "stateMutability": "nonpayable",
      "type": "function"
    },
    {
      "inputs": [
        {
          "internalType": "address",
          "name": "_addr",
          "type": "address"
        }
      ],
      "name": "addressExists",
      "outputs": [
        {
          "internalType": "bool",
          "name": "",
          "type": "bool"
        }
      ],
      "stateMutability": "view",
      "type": "function"
    },
    {
      "inputs": [
        {
          "internalType": "uint256",
          "name": "amount",
          "type": "uint256"
        }
      ],
      "name": "borrowUSDC",
      "outputs": [],
      "stateMutability": "nonpayable",
      "type": "function"
    },
    {
      "inputs": [],
      "name": "depositC_ETH",
      "outputs": [],
      "stateMutability": "payable",
      "type": "function"
    },
    {
      "inputs": [
        {
          "internalType": "uint256",
          "name": "amount",
          "type": "uint256"
        }
      ],
      "name": "depositUSDC",
      "outputs": [],
      "stateMutability": "nonpayable",
      "type": "function"
    },
    {
      "inputs": [],
      "name": "feesPool",
      "outputs": [
        {
          "internalType": "uint256",
          "name": "",
          "type": "uint256"
        }
      ],
      "stateMutability": "view",
      "type": "function"
    },
    {
      "inputs": [],
      "name": "g6Token",
      "outputs": [
        {
          "internalType": "contract G6Token",
          "name": "",
          "type": "address"
        }
      ],
      "stateMutability": "view",
      "type": "function"
    },
    {
      "inputs": [],
      "name": "getETHPrice",
      "outputs": [
        {
          "internalType": "uint256",
          "name": "ethPrice",
          "type": "uint256"
        }
      ],
      "stateMutability": "view",
      "type": "function"
    },
    {
      "inputs": [
        {
          "internalType": "uint256",
          "name": "amount",
          "type": "uint256"
        }
      ],
      "name": "getUSDCValue",
      "outputs": [
        {
          "internalType": "uint256",
          "name": "usdcValue",
          "type": "uint256"
        }
      ],
      "stateMutability": "view",
      "type": "function"
    },
    {
      "inputs": [],
      "name": "lendingPool",
      "outputs": [
        {
          "internalType": "uint256",
          "name": "",
          "type": "uint256"
        }
      ],
      "stateMutability": "view",
      "type": "function"
    },
    {
      "inputs": [],
      "name": "oracleContract",
      "outputs": [
        {
          "internalType": "contract CallOracle",
          "name": "",
          "type": "address"
        }
      ],
      "stateMutability": "view",
      "type": "function"
    },
    {
      "inputs": [],
      "name": "owner",
      "outputs": [
        {
          "internalType": "address",
          "name": "",
          "type": "address"
        }
      ],
      "stateMutability": "view",
      "type": "function"
    },
    {
      "inputs": [],
      "name": "ownerWithdrawETH",
      "outputs": [],
      "stateMutability": "nonpayable",
      "type": "function"
    },
    {
      "inputs": [],
      "name": "ownerWithdrawUSDC",
      "outputs": [],
      "stateMutability": "nonpayable",
      "type": "function"
    },
    {
      "inputs": [],
      "name": "renounceOwnership",
      "outputs": [],
      "stateMutability": "nonpayable",
      "type": "function"
    },
    {
      "inputs": [
        {
          "internalType": "uint256",
          "name": "amount",
          "type": "uint256"
        }
      ],
      "name": "repayUSDC",
      "outputs": [],
      "stateMutability": "nonpayable",
      "type": "function"
    },
    {
      "inputs": [
        {
          "internalType": "address",
          "name": "account",
          "type": "address"
        }
      ],
      "name": "totalDebtOf",
      "outputs": [
        {
          "internalType": "uint256",
          "name": "totalDebt",
          "type": "uint256"
        }
      ],
      "stateMutability": "view",
      "type": "function"
    },
    {
      "inputs": [
        {
          "internalType": "address",
          "name": "account",
          "type": "address"
        }
      ],
      "name": "totalFeeOf",
      "outputs": [
        {
          "internalType": "uint256",
          "name": "tempFee",
          "type": "uint256"
        }
      ],
      "stateMutability": "view",
      "type": "function"
    },
    {
      "inputs": [
        {
          "internalType": "address",
          "name": "newOwner",
          "type": "address"
        }
      ],
      "name": "transferOwnership",
      "outputs": [],
      "stateMutability": "nonpayable",
      "type": "function"
    },
    {
      "inputs": [],
      "name": "usdcToken",
      "outputs": [
        {
          "internalType": "contract IERC20",
          "name": "",
          "type": "address"
        }
      ],
      "stateMutability": "view",
      "type": "function"
    },
    {
      "inputs": [
        {
          "internalType": "address",
          "name": "",
          "type": "address"
        }
      ],
      "name": "user",
      "outputs": [
        {
          "internalType": "uint256",
          "name": "depositL_USDC",
          "type": "uint256"
        },
        {
          "internalType": "uint256",
          "name": "time_depositL_USDC",
          "type": "uint256"
        },
        {
          "internalType": "uint256",
          "name": "g6tReward_deposit",
          "type": "uint256"
        },
        {
          "internalType": "uint256",
          "name": "usdcReward_deposit",
          "type": "uint256"
        },
        {
          "internalType": "uint256",
          "name": "depositC_ETH",
          "type": "uint256"
        },
        {
          "internalType": "uint256",
          "name": "time_depositC_ETH",
          "type": "uint256"
        },
        {
          "internalType": "uint256",
          "name": "availableB_USDC",
          "type": "uint256"
        },
        {
          "internalType": "uint256",
          "name": "withdrawB_USDC",
          "type": "uint256"
        },
        {
          "internalType": "uint256",
          "name": "time_withdrawB_USDC",
          "type": "uint256"
        },
        {
          "internalType": "uint256",
          "name": "interestFee",
          "type": "uint256"
        }
      ],
      "stateMutability": "view",
      "type": "function"
    },
    {
      "inputs": [
        {
          "internalType": "uint256",
          "name": "",
          "type": "uint256"
        }
      ],
      "name": "userList",
      "outputs": [
        {
          "internalType": "address",
          "name": "",
          "type": "address"
        }
      ],
      "stateMutability": "view",
      "type": "function"
    },
    {
      "inputs": [],
      "name": "withdrawC_ETH",
      "outputs": [],
      "stateMutability": "nonpayable",
      "type": "function"
    },
    {
      "inputs": [
        {
          "internalType": "uint256",
          "name": "amount",
          "type": "uint256"
        }
      ],
      "name": "withdrawUSDC",
      "outputs": [],
      "stateMutability": "nonpayable",
      "type": "function"
    },
    {
      "stateMutability": "payable",
      "type": "receive"
    }
  ],
  "bytecode": "0x60806040523480156200001157600080fd5b5062000032620000266200013760201b60201c565b6200013f60201b60201c565b73ba64c03e45cc1e3fe483dbdb3a671dba7a0ab7cd600360006101000a81548173ffffffffffffffffffffffffffffffffffffffff021916908373ffffffffffffffffffffffffffffffffffffffff16021790555073d17ecb6579cad73ae27596929e13b619ba9060a5600160006101000a81548173ffffffffffffffffffffffffffffffffffffffff021916908373ffffffffffffffffffffffffffffffffffffffff1602179055507394a9d9ac8a22534e3faca9f4e7f2e2cf85d5e4c8600260006101000a81548173ffffffffffffffffffffffffffffffffffffffff021916908373ffffffffffffffffffffffffffffffffffffffff16021790555062000203565b600033905090565b60008060009054906101000a900473ffffffffffffffffffffffffffffffffffffffff169050816000806101000a81548173ffffffffffffffffffffffffffffffffffffffff021916908373ffffffffffffffffffffffffffffffffffffffff1602179055508173ffffffffffffffffffffffffffffffffffffffff168173ffffffffffffffffffffffffffffffffffffffff167f8be0079c531659141344cd1fd0a4f28419497f9722a3daafe3b4186f6b6457e060405160405180910390a35050565b61287080620002136000396000f3fe60806040526004361061014f5760003560e01c80639219e045116100b6578063a607a8d91161006f578063a607a8d91461045f578063b7bd72c91461048a578063bece7532146104b5578063db81f99b146104e0578063f2fde38b14610509578063f688bcfb1461053257610156565b80639219e045146103175780639236a51d146103545780639f2b28331461037d5780639f4216e8146103ba578063a5025222146103f7578063a59a99731461043457610156565b8063715018a611610108578063715018a6146102385780637a9fe9ff1461024f5780637ac753431461027857806381e7e20e1461028f57806387d7d68a146102d55780638da5cb5b146102ec57610156565b806311eac8551461015b5780631e67dd651461018657806326a75ea6146101c357806327a910dc146101cd578063652eb724146101e45780636b2596901461020d57610156565b3661015657005b600080fd5b34801561016757600080fd5b5061017061055b565b60405161017d9190611fb7565b60405180910390f35b34801561019257600080fd5b506101ad60048036038101906101a8919061200d565b610581565b6040516101ba9190612049565b60405180910390f35b6101cb6105b0565b005b3480156101d957600080fd5b506101e26106d5565b005b3480156101f057600080fd5b5061020b600480360381019061020691906120a2565b61078c565b005b34801561021957600080fd5b50610222610800565b60405161022f9190612049565b60405180910390f35b34801561024457600080fd5b5061024d610806565b005b34801561025b57600080fd5b506102766004803603810190610271919061200d565b61081a565b005b34801561028457600080fd5b5061028d610b34565b005b34801561029b57600080fd5b506102b660048036038101906102b191906120a2565b610bf6565b6040516102cc9a999897969594939291906120cf565b60405180910390f35b3480156102e157600080fd5b506102ea610c4a565b005b3480156102f857600080fd5b50610301610cf9565b60405161030e919061217a565b60405180910390f35b34801561032357600080fd5b5061033e600480360381019061033991906120a2565b610d22565b60405161034b9190612049565b60405180910390f35b34801561036057600080fd5b5061037b6004803603810190610376919061200d565b610e79565b005b34801561038957600080fd5b506103a4600480360381019061039f91906120a2565b6115f4565b6040516103b19190612049565b60405180910390f35b3480156103c657600080fd5b506103e160048036038101906103dc919061200d565b6116a6565b6040516103ee919061217a565b60405180910390f35b34801561040357600080fd5b5061041e600480360381019061041991906120a2565b6116e5565b60405161042b91906121b0565b60405180910390f35b34801561044057600080fd5b50610449611793565b6040516104569190612049565b60405180910390f35b34801561046b57600080fd5b50610474611799565b6040516104819190612049565b60405180910390f35b34801561049657600080fd5b5061049f61183d565b6040516104ac91906121ec565b60405180910390f35b3480156104c157600080fd5b506104ca611863565b6040516104d79190612228565b60405180910390f35b3480156104ec57600080fd5b506105076004803603810190610502919061200d565b611889565b005b34801561051557600080fd5b50610530600480360381019061052b91906120a2565b611a69565b005b34801561053e57600080fd5b506105596004803603810190610554919061200d565b611aec565b005b600260009054906101000a900473ffffffffffffffffffffffffffffffffffffffff1681565b6000670de0b6b3a7640000610594611799565b8361059f9190612272565b6105a991906122e3565b9050919050565b6105b93361078c565b34600460003373ffffffffffffffffffffffffffffffffffffffff1673ffffffffffffffffffffffffffffffffffffffff168152602001908152602001600020600401600082825461060b9190612314565b92505081905550600061065f600460003373ffffffffffffffffffffffffffffffffffffffff1673ffffffffffffffffffffffffffffffffffffffff16815260200190815260200160002060040154610581565b9050600a6008826106709190612272565b61067a91906122e3565b600460003373ffffffffffffffffffffffffffffffffffffffff1673ffffffffffffffffffffffffffffffffffffffff16815260200190815260200160002060060160008282546106cb9190612314565b9250508190555050565b6106dd611dee565b60003373ffffffffffffffffffffffffffffffffffffffff164760405161070390612379565b60006040518083038185875af1925050503d8060008114610740576040519150601f19603f3d011682016040523d82523d6000602084013e610745565b606091505b5050905080610789576040517f08c379a0000000000000000000000000000000000000000000000000000000008152600401610780906123eb565b60405180910390fd5b50565b610795816116e5565b6107fd576005819080600181540180825580915050600190039060005260206000200160009091909190916101000a81548173ffffffffffffffffffffffffffffffffffffffff021916908373ffffffffffffffffffffffffffffffffffffffff1602179055505b50565b60075481565b61080e611dee565b6108186000611e6c565b565b806000811161085e576040517f08c379a000000000000000000000000000000000000000000000000000000000815260040161085590612457565b60405180910390fd5b600460003373ffffffffffffffffffffffffffffffffffffffff1673ffffffffffffffffffffffffffffffffffffffff168152602001908152602001600020600601548211156108e3576040517f08c379a00000000000000000000000000000000000000000000000000000000081526004016108da906124c3565b60405180910390fd5b6000600460003373ffffffffffffffffffffffffffffffffffffffff1673ffffffffffffffffffffffffffffffffffffffff168152602001908152602001600020600901541461097d5761093633610d22565b600460003373ffffffffffffffffffffffffffffffffffffffff1673ffffffffffffffffffffffffffffffffffffffff168152602001908152602001600020600901819055505b81600460003373ffffffffffffffffffffffffffffffffffffffff1673ffffffffffffffffffffffffffffffffffffffff16815260200190815260200160002060060160008282546109cf91906124e3565b9250508190555081600460003373ffffffffffffffffffffffffffffffffffffffff1673ffffffffffffffffffffffffffffffffffffffff1681526020019081526020016000206007016000828254610a289190612314565b925050819055508160066000828254610a4191906124e3565b9250508190555042600460003373ffffffffffffffffffffffffffffffffffffffff1673ffffffffffffffffffffffffffffffffffffffff16815260200190815260200160002060080181905550600260009054906101000a900473ffffffffffffffffffffffffffffffffffffffff1673ffffffffffffffffffffffffffffffffffffffff1663a9059cbb33846040518363ffffffff1660e01b8152600401610aec929190612517565b6020604051808303816000875af1158015610b0b573d6000803e3d6000fd5b505050506040513d601f19601f82011682018060405250810190610b2f919061256c565b505050565b610b3c611dee565b600260009054906101000a900473ffffffffffffffffffffffffffffffffffffffff1673ffffffffffffffffffffffffffffffffffffffff1663a9059cbb33600754600654610b8b9190612314565b6040518363ffffffff1660e01b8152600401610ba8929190612517565b6020604051808303816000875af1158015610bc7573d6000803e3d6000fd5b505050506040513d601f19601f82011682018060405250810190610beb919061256c565b506000600681905550565b6004602052806000526040600020600091509050806000015490806001015490806002015490806003015490806004015490806005015490806006015490806007015490806008015490806009015490508a565b60003373ffffffffffffffffffffffffffffffffffffffff1647604051610c7090612379565b60006040518083038185875af1925050503d8060008114610cad576040519150601f19603f3d011682016040523d82523d6000602084013e610cb2565b606091505b5050905080610cf6576040517f08c379a0000000000000000000000000000000000000000000000000000000008152600401610ced906123eb565b60405180910390fd5b50565b60008060009054906101000a900473ffffffffffffffffffffffffffffffffffffffff16905090565b600080600460008473ffffffffffffffffffffffffffffffffffffffff1673ffffffffffffffffffffffffffffffffffffffff1681526020019081526020016000206008015403610d765760009050610e74565b6000600460008473ffffffffffffffffffffffffffffffffffffffff1673ffffffffffffffffffffffffffffffffffffffff1681526020019081526020016000206008015442610dc691906124e3565b9050612710600460008573ffffffffffffffffffffffffffffffffffffffff1673ffffffffffffffffffffffffffffffffffffffff16815260200190815260200160002060070154610e1891906122e3565b81610e239190612272565b600460008573ffffffffffffffffffffffffffffffffffffffff1673ffffffffffffffffffffffffffffffffffffffff16815260200190815260200160002060090154610e709190612314565b9150505b919050565b8060008111610ebd576040517f08c379a0000000000000000000000000000000000000000000000000000000008152600401610eb490612457565b60405180910390fd5b6000610ec8336115f4565b9050610ed333610d22565b600460003373ffffffffffffffffffffffffffffffffffffffff1673ffffffffffffffffffffffffffffffffffffffff168152602001908152602001600020600901819055508083106111df57600260009054906101000a900473ffffffffffffffffffffffffffffffffffffffff1673ffffffffffffffffffffffffffffffffffffffff166323b872dd3330846040518463ffffffff1660e01b8152600401610f7f93929190612599565b6020604051808303816000875af1158015610f9e573d6000803e3d6000fd5b505050506040513d601f19601f82011682018060405250810190610fc2919061256c565b50600460003373ffffffffffffffffffffffffffffffffffffffff1673ffffffffffffffffffffffffffffffffffffffff16815260200190815260200160002060070154600460003373ffffffffffffffffffffffffffffffffffffffff1673ffffffffffffffffffffffffffffffffffffffff16815260200190815260200160002060060181905550600460003373ffffffffffffffffffffffffffffffffffffffff1673ffffffffffffffffffffffffffffffffffffffff16815260200190815260200160002060070154600660008282546110a09190612314565b92505081905550600460003373ffffffffffffffffffffffffffffffffffffffff1673ffffffffffffffffffffffffffffffffffffffff16815260200190815260200160002060090154600760008282546110fb9190612314565b925050819055506000600460003373ffffffffffffffffffffffffffffffffffffffff1673ffffffffffffffffffffffffffffffffffffffff168152602001908152602001600020600701819055506000600460003373ffffffffffffffffffffffffffffffffffffffff1673ffffffffffffffffffffffffffffffffffffffff168152602001908152602001600020600901819055506000600460003373ffffffffffffffffffffffffffffffffffffffff1673ffffffffffffffffffffffffffffffffffffffff168152602001908152602001600020600801819055506115ef565b600460003373ffffffffffffffffffffffffffffffffffffffff1673ffffffffffffffffffffffffffffffffffffffff1681526020019081526020016000206009015483106114d857600260009054906101000a900473ffffffffffffffffffffffffffffffffffffffff1673ffffffffffffffffffffffffffffffffffffffff166323b872dd3330866040518463ffffffff1660e01b815260040161128793929190612599565b6020604051808303816000875af11580156112a6573d6000803e3d6000fd5b505050506040513d601f19601f820116820180604052508101906112ca919061256c565b5042600460003373ffffffffffffffffffffffffffffffffffffffff1673ffffffffffffffffffffffffffffffffffffffff168152602001908152602001600020600801819055506000600460003373ffffffffffffffffffffffffffffffffffffffff1673ffffffffffffffffffffffffffffffffffffffff168152602001908152602001600020600901548461136291906124e3565b9050600460003373ffffffffffffffffffffffffffffffffffffffff1673ffffffffffffffffffffffffffffffffffffffff16815260200190815260200160002060090154600760008282546113b89190612314565b925050819055506000600460003373ffffffffffffffffffffffffffffffffffffffff1673ffffffffffffffffffffffffffffffffffffffff1681526020019081526020016000206009018190555080600460003373ffffffffffffffffffffffffffffffffffffffff1673ffffffffffffffffffffffffffffffffffffffff16815260200190815260200160002060060160008282546114599190612314565b9250508190555080600660008282546114729190612314565b9250508190555080600460003373ffffffffffffffffffffffffffffffffffffffff1673ffffffffffffffffffffffffffffffffffffffff16815260200190815260200160002060070160008282546114cb91906124e3565b92505081905550506115ee565b600260009054906101000a900473ffffffffffffffffffffffffffffffffffffffff1673ffffffffffffffffffffffffffffffffffffffff166323b872dd3330866040518463ffffffff1660e01b815260040161153793929190612599565b6020604051808303816000875af1158015611556573d6000803e3d6000fd5b505050506040513d601f19601f8201168201806040525081019061157a919061256c565b50826007600082825461158d9190612314565b9250508190555082600460003373ffffffffffffffffffffffffffffffffffffffff1673ffffffffffffffffffffffffffffffffffffffff16815260200190815260200160002060090160008282546115e691906124e3565b925050819055505b5b505050565b600080600460008473ffffffffffffffffffffffffffffffffffffffff1673ffffffffffffffffffffffffffffffffffffffff168152602001908152602001600020600801540361164857600090506116a1565b61165182610d22565b600460008473ffffffffffffffffffffffffffffffffffffffff1673ffffffffffffffffffffffffffffffffffffffff1681526020019081526020016000206007015461169e9190612314565b90505b919050565b600581815481106116b657600080fd5b906000526020600020016000915054906101000a900473ffffffffffffffffffffffffffffffffffffffff1681565b600080600090505b600580549050811015611788578273ffffffffffffffffffffffffffffffffffffffff1660058281548110611725576117246125d0565b5b9060005260206000200160009054906101000a900473ffffffffffffffffffffffffffffffffffffffff1673ffffffffffffffffffffffffffffffffffffffff160361177557600191505061178e565b8080611780906125ff565b9150506116ed565b50600090505b919050565b60065481565b60006064600160009054906101000a900473ffffffffffffffffffffffffffffffffffffffff1673ffffffffffffffffffffffffffffffffffffffff1663a0a8045e6040518163ffffffff1660e01b8152600401602060405180830381865afa15801561180a573d6000803e3d6000fd5b505050506040513d601f19601f8201168201806040525081019061182e919061267d565b61183891906122e3565b905090565b600360009054906101000a900473ffffffffffffffffffffffffffffffffffffffff1681565b600160009054906101000a900473ffffffffffffffffffffffffffffffffffffffff1681565b80600081116118cd576040517f08c379a00000000000000000000000000000000000000000000000000000000081526004016118c490612457565b60405180910390fd5b600460003373ffffffffffffffffffffffffffffffffffffffff1673ffffffffffffffffffffffffffffffffffffffff16815260200190815260200160002060000154821115611952576040517f08c379a00000000000000000000000000000000000000000000000000000000081526004016119499061271c565b60405180910390fd5b81600460003373ffffffffffffffffffffffffffffffffffffffff1673ffffffffffffffffffffffffffffffffffffffff16815260200190815260200160002060000160008282546119a491906124e3565b9250508190555081600660008282546119bd91906124e3565b92505081905550600260009054906101000a900473ffffffffffffffffffffffffffffffffffffffff1673ffffffffffffffffffffffffffffffffffffffff1663a9059cbb33846040518363ffffffff1660e01b8152600401611a21929190612517565b6020604051808303816000875af1158015611a40573d6000803e3d6000fd5b505050506040513d601f19601f82011682018060405250810190611a64919061256c565b505050565b611a71611dee565b600073ffffffffffffffffffffffffffffffffffffffff168173ffffffffffffffffffffffffffffffffffffffff1603611ae0576040517f08c379a0000000000000000000000000000000000000000000000000000000008152600401611ad7906127ae565b60405180910390fd5b611ae981611e6c565b50565b8060008111611b30576040517f08c379a0000000000000000000000000000000000000000000000000000000008152600401611b2790612457565b60405180910390fd5b611b38610cf9565b73ffffffffffffffffffffffffffffffffffffffff163373ffffffffffffffffffffffffffffffffffffffff1603611c8457600260009054906101000a900473ffffffffffffffffffffffffffffffffffffffff1673ffffffffffffffffffffffffffffffffffffffff166323b872dd3330856040518463ffffffff1660e01b8152600401611bc993929190612599565b6020604051808303816000875af1158015611be8573d6000803e3d6000fd5b505050506040513d601f19601f82011682018060405250810190611c0c919061256c565b5081600460003373ffffffffffffffffffffffffffffffffffffffff1673ffffffffffffffffffffffffffffffffffffffff1681526020019081526020016000206000016000828254611c5f9190612314565b925050819055508160066000828254611c789190612314565b92505081905550611dea565b611c8d3361078c565b600260009054906101000a900473ffffffffffffffffffffffffffffffffffffffff1673ffffffffffffffffffffffffffffffffffffffff166323b872dd3330856040518463ffffffff1660e01b8152600401611cec93929190612599565b6020604051808303816000875af1158015611d0b573d6000803e3d6000fd5b505050506040513d601f19601f82011682018060405250810190611d2f919061256c565b5081600460003373ffffffffffffffffffffffffffffffffffffffff1673ffffffffffffffffffffffffffffffffffffffff1681526020019081526020016000206000016000828254611d829190612314565b9250508190555042600460003373ffffffffffffffffffffffffffffffffffffffff1673ffffffffffffffffffffffffffffffffffffffff168152602001908152602001600020600101819055508160066000828254611de29190612314565b925050819055505b5050565b611df6611f30565b73ffffffffffffffffffffffffffffffffffffffff16611e14610cf9565b73ffffffffffffffffffffffffffffffffffffffff1614611e6a576040517f08c379a0000000000000000000000000000000000000000000000000000000008152600401611e619061281a565b60405180910390fd5b565b60008060009054906101000a900473ffffffffffffffffffffffffffffffffffffffff169050816000806101000a81548173ffffffffffffffffffffffffffffffffffffffff021916908373ffffffffffffffffffffffffffffffffffffffff1602179055508173ffffffffffffffffffffffffffffffffffffffff168173ffffffffffffffffffffffffffffffffffffffff167f8be0079c531659141344cd1fd0a4f28419497f9722a3daafe3b4186f6b6457e060405160405180910390a35050565b600033905090565b600073ffffffffffffffffffffffffffffffffffffffff82169050919050565b6000819050919050565b6000611f7d611f78611f7384611f38565b611f58565b611f38565b9050919050565b6000611f8f82611f62565b9050919050565b6000611fa182611f84565b9050919050565b611fb181611f96565b82525050565b6000602082019050611fcc6000830184611fa8565b92915050565b600080fd5b6000819050919050565b611fea81611fd7565b8114611ff557600080fd5b50565b60008135905061200781611fe1565b92915050565b60006020828403121561202357612022611fd2565b5b600061203184828501611ff8565b91505092915050565b61204381611fd7565b82525050565b600060208201905061205e600083018461203a565b92915050565b600061206f82611f38565b9050919050565b61207f81612064565b811461208a57600080fd5b50565b60008135905061209c81612076565b92915050565b6000602082840312156120b8576120b7611fd2565b5b60006120c68482850161208d565b91505092915050565b6000610140820190506120e5600083018d61203a565b6120f2602083018c61203a565b6120ff604083018b61203a565b61210c606083018a61203a565b612119608083018961203a565b61212660a083018861203a565b61213360c083018761203a565b61214060e083018661203a565b61214e61010083018561203a565b61215c61012083018461203a565b9b9a5050505050505050505050565b61217481612064565b82525050565b600060208201905061218f600083018461216b565b92915050565b60008115159050919050565b6121aa81612195565b82525050565b60006020820190506121c560008301846121a1565b92915050565b60006121d682611f84565b9050919050565b6121e6816121cb565b82525050565b600060208201905061220160008301846121dd565b92915050565b600061221282611f84565b9050919050565b61222281612207565b82525050565b600060208201905061223d6000830184612219565b92915050565b7f4e487b7100000000000000000000000000000000000000000000000000000000600052601160045260246000fd5b600061227d82611fd7565b915061228883611fd7565b925082820261229681611fd7565b915082820484148315176122ad576122ac612243565b5b5092915050565b7f4e487b7100000000000000000000000000000000000000000000000000000000600052601260045260246000fd5b60006122ee82611fd7565b91506122f983611fd7565b925082612309576123086122b4565b5b828204905092915050565b600061231f82611fd7565b915061232a83611fd7565b925082820190508082111561234257612341612243565b5b92915050565b600081905092915050565b50565b6000612363600083612348565b915061236e82612353565b600082019050919050565b600061238482612356565b9150819050919050565b600082825260208201905092915050565b7f4661696c656420746f2077697468647261770000000000000000000000000000600082015250565b60006123d560128361238e565b91506123e08261239f565b602082019050919050565b60006020820190508181036000830152612404816123c8565b9050919050565b7f56616c7565206e6f742061636365707465640000000000000000000000000000600082015250565b600061244160128361238e565b915061244c8261240b565b602082019050919050565b6000602082019050818103600083015261247081612434565b9050919050565b7f43616e2774207769746864726177206d6f7265207468616e20616c6c6f776564600082015250565b60006124ad60208361238e565b91506124b882612477565b602082019050919050565b600060208201905081810360008301526124dc816124a0565b9050919050565b60006124ee82611fd7565b91506124f983611fd7565b925082820390508181111561251157612510612243565b5b92915050565b600060408201905061252c600083018561216b565b612539602083018461203a565b9392505050565b61254981612195565b811461255457600080fd5b50565b60008151905061256681612540565b92915050565b60006020828403121561258257612581611fd2565b5b600061259084828501612557565b91505092915050565b60006060820190506125ae600083018661216b565b6125bb602083018561216b565b6125c8604083018461203a565b949350505050565b7f4e487b7100000000000000000000000000000000000000000000000000000000600052603260045260246000fd5b600061260a82611fd7565b91507fffffffffffffffffffffffffffffffffffffffffffffffffffffffffffffffff820361263c5761263b612243565b5b600182019050919050565b6000819050919050565b61265a81612647565b811461266557600080fd5b50565b60008151905061267781612651565b92915050565b60006020828403121561269357612692611fd2565b5b60006126a184828501612668565b91505092915050565b7f43616e2774207769746864726177206d6f7265207468616e207768617420796f60008201527f75206465706f7369746564000000000000000000000000000000000000000000602082015250565b6000612706602b8361238e565b9150612711826126aa565b604082019050919050565b60006020820190508181036000830152612735816126f9565b9050919050565b7f4f776e61626c653a206e6577206f776e657220697320746865207a65726f206160008201527f6464726573730000000000000000000000000000000000000000000000000000602082015250565b600061279860268361238e565b91506127a38261273c565b604082019050919050565b600060208201905081810360008301526127c78161278b565b9050919050565b7f4f776e61626c653a2063616c6c6572206973206e6f7420746865206f776e6572600082015250565b600061280460208361238e565b915061280f826127ce565b602082019050919050565b60006020820190508181036000830152612833816127f7565b905091905056fea264697066735822122080ec3ecd7a14e9a5c47e7173e94d71c09d027ee9a6833ab5ea441c39af514f5864736f6c63430008130033",
  "linkReferences": {},
  "deployedLinkReferences": {}
}