{
  "_format": "hh-sol-artifact-1",
  "contractName": "LendingProtocol",
  "sourceName": "contracts/LendingProtocol.sol",
  "abi": [
    {
      "inputs": [],
      "stateMutability": "nonpayable",
      "type": "constructor"
    },
    {
      "anonymous": false,
      "inputs": [
        {
          "indexed": true,
          "internalType": "address",
          "name": "previousOwner",
          "type": "address"
        },
        {
          "indexed": true,
          "internalType": "address",
          "name": "newOwner",
          "type": "address"
        }
      ],
      "name": "OwnershipTransferred",
      "type": "event"
    },
    {
      "inputs": [
        {
          "internalType": "uint256",
          "name": "amount",
          "type": "uint256"
        }
      ],
      "name": "borrowUSDC_B",
      "outputs": [],
      "stateMutability": "nonpayable",
      "type": "function"
    },
    {
      "inputs": [],
      "name": "depositETH_C",
      "outputs": [],
      "stateMutability": "payable",
      "type": "function"
    },
    {
      "inputs": [
        {
          "internalType": "uint256",
          "name": "amount",
          "type": "uint256"
        }
      ],
      "name": "depositUSDC_L",
      "outputs": [],
      "stateMutability": "nonpayable",
      "type": "function"
    },
    {
      "inputs": [],
      "name": "feesPool",
      "outputs": [
        {
          "internalType": "uint256",
          "name": "",
          "type": "uint256"
        }
      ],
      "stateMutability": "view",
      "type": "function"
    },
    {
      "inputs": [],
      "name": "g6Token",
      "outputs": [
        {
          "internalType": "contract G6Token",
          "name": "",
          "type": "address"
        }
      ],
      "stateMutability": "view",
      "type": "function"
    },
    {
      "inputs": [],
      "name": "getETHPrice",
      "outputs": [
        {
          "internalType": "uint256",
          "name": "ethPrice",
          "type": "uint256"
        }
      ],
      "stateMutability": "view",
      "type": "function"
    },
    {
      "inputs": [
        {
          "internalType": "uint256",
          "name": "amount",
          "type": "uint256"
        }
      ],
      "name": "getUSDCValue_ETH",
      "outputs": [
        {
          "internalType": "uint256",
          "name": "",
          "type": "uint256"
        }
      ],
      "stateMutability": "view",
      "type": "function"
    },
    {
      "inputs": [
        {
          "internalType": "uint256",
          "name": "amount",
          "type": "uint256"
        }
      ],
      "name": "getUSDCValue_G6T",
      "outputs": [
        {
          "internalType": "uint256",
          "name": "",
          "type": "uint256"
        }
      ],
      "stateMutability": "view",
      "type": "function"
    },
    {
      "inputs": [],
      "name": "lendingPool",
      "outputs": [
        {
          "internalType": "uint256",
          "name": "",
          "type": "uint256"
        }
      ],
      "stateMutability": "view",
      "type": "function"
    },
    {
      "inputs": [],
      "name": "oracleContract",
      "outputs": [
        {
          "internalType": "contract CallOracle",
          "name": "",
          "type": "address"
        }
      ],
      "stateMutability": "view",
      "type": "function"
    },
    {
      "inputs": [],
      "name": "owner",
      "outputs": [
        {
          "internalType": "address",
          "name": "",
          "type": "address"
        }
      ],
      "stateMutability": "view",
      "type": "function"
    },
    {
      "inputs": [],
      "name": "ownerWithdrawETH",
      "outputs": [],
      "stateMutability": "nonpayable",
      "type": "function"
    },
    {
      "inputs": [],
      "name": "ownerWithdrawUSDC",
      "outputs": [],
      "stateMutability": "nonpayable",
      "type": "function"
    },
    {
      "inputs": [],
      "name": "renounceOwnership",
      "outputs": [],
      "stateMutability": "nonpayable",
      "type": "function"
    },
    {
      "inputs": [
        {
          "internalType": "uint256",
          "name": "amount",
          "type": "uint256"
        }
      ],
      "name": "repayUSDC_B",
      "outputs": [],
      "stateMutability": "nonpayable",
      "type": "function"
    },
    {
      "inputs": [
        {
          "internalType": "address",
          "name": "account",
          "type": "address"
        }
      ],
      "name": "totalDebtOf",
      "outputs": [
        {
          "internalType": "uint256",
          "name": "totalDebt",
          "type": "uint256"
        }
      ],
      "stateMutability": "view",
      "type": "function"
    },
    {
      "inputs": [
        {
          "internalType": "address",
          "name": "account",
          "type": "address"
        }
      ],
      "name": "totalFeeOf",
      "outputs": [
        {
          "internalType": "uint256",
          "name": "tempFee",
          "type": "uint256"
        }
      ],
      "stateMutability": "view",
      "type": "function"
    },
    {
      "inputs": [
        {
          "internalType": "address",
          "name": "account",
          "type": "address"
        }
      ],
      "name": "totalG6TRewards_L",
      "outputs": [
        {
          "internalType": "uint256",
          "name": "",
          "type": "uint256"
        }
      ],
      "stateMutability": "view",
      "type": "function"
    },
    {
      "inputs": [
        {
          "internalType": "address",
          "name": "newOwner",
          "type": "address"
        }
      ],
      "name": "transferOwnership",
      "outputs": [],
      "stateMutability": "nonpayable",
      "type": "function"
    },
    {
      "inputs": [],
      "name": "usdcToken",
      "outputs": [
        {
          "internalType": "contract IERC20",
          "name": "",
          "type": "address"
        }
      ],
      "stateMutability": "view",
      "type": "function"
    },
    {
      "inputs": [
        {
          "internalType": "address",
          "name": "",
          "type": "address"
        }
      ],
      "name": "user",
      "outputs": [
        {
          "internalType": "uint256",
          "name": "depositL_USDC",
          "type": "uint256"
        },
        {
          "internalType": "uint256",
          "name": "time_depositL_USDC",
          "type": "uint256"
        },
        {
          "internalType": "uint256",
          "name": "reward_depositL_G6T",
          "type": "uint256"
        },
        {
          "internalType": "uint256",
          "name": "reward_depositL_USDC",
          "type": "uint256"
        },
        {
          "internalType": "uint256",
          "name": "depositC_ETH",
          "type": "uint256"
        },
        {
          "internalType": "uint256",
          "name": "time_depositC_ETH",
          "type": "uint256"
        },
        {
          "internalType": "uint256",
          "name": "availableB_USDC",
          "type": "uint256"
        },
        {
          "internalType": "uint256",
          "name": "withdrawB_USDC",
          "type": "uint256"
        },
        {
          "internalType": "uint256",
          "name": "time_withdrawB_USDC",
          "type": "uint256"
        },
        {
          "internalType": "uint256",
          "name": "interestFee",
          "type": "uint256"
        }
      ],
      "stateMutability": "view",
      "type": "function"
    },
    {
      "inputs": [
        {
          "internalType": "uint256",
          "name": "",
          "type": "uint256"
        }
      ],
      "name": "userList",
      "outputs": [
        {
          "internalType": "address",
          "name": "",
          "type": "address"
        }
      ],
      "stateMutability": "view",
      "type": "function"
    },
    {
      "inputs": [],
      "name": "withdrawETH_C",
      "outputs": [],
      "stateMutability": "nonpayable",
      "type": "function"
    },
    {
      "inputs": [
        {
          "internalType": "uint256",
          "name": "amount",
          "type": "uint256"
        }
      ],
      "name": "withdrawUSDC_L",
      "outputs": [],
      "stateMutability": "nonpayable",
      "type": "function"
    },
    {
      "stateMutability": "payable",
      "type": "receive"
    }
  ],
  "bytecode": "0x60806040523480156200001157600080fd5b5062000032620000266200013760201b60201c565b6200013f60201b60201c565b73b46b5c88464e2dcee987f159f6cf1066b52a360d600360006101000a81548173ffffffffffffffffffffffffffffffffffffffff021916908373ffffffffffffffffffffffffffffffffffffffff16021790555073d17ecb6579cad73ae27596929e13b619ba9060a5600160006101000a81548173ffffffffffffffffffffffffffffffffffffffff021916908373ffffffffffffffffffffffffffffffffffffffff1602179055507394a9d9ac8a22534e3faca9f4e7f2e2cf85d5e4c8600260006101000a81548173ffffffffffffffffffffffffffffffffffffffff021916908373ffffffffffffffffffffffffffffffffffffffff16021790555062000203565b600033905090565b60008060009054906101000a900473ffffffffffffffffffffffffffffffffffffffff169050816000806101000a81548173ffffffffffffffffffffffffffffffffffffffff021916908373ffffffffffffffffffffffffffffffffffffffff1602179055508173ffffffffffffffffffffffffffffffffffffffff168173ffffffffffffffffffffffffffffffffffffffff167f8be0079c531659141344cd1fd0a4f28419497f9722a3daafe3b4186f6b6457e060405160405180910390a35050565b612ae880620002136000396000f3fe60806040526004361061014f5760003560e01c80638da5cb5b116100b6578063a607a8d91161006f578063a607a8d914610473578063b7bd72c91461049e578063bdf8781c146104c9578063bece7532146104f2578063cdd6f21b1461051d578063f2fde38b1461054657610156565b80638da5cb5b1461033d5780639219e045146103685780639f2b2833146103a55780639f4216e8146103e2578063a0989e3e1461041f578063a59a99731461044857610156565b80635acf04a1116101085780635acf04a1146102385780636412b21a146102615780636b2596901461029e578063715018a6146102c95780637ac75343146102e057806381e7e20e146102f757610156565b8063064f28341461015b57806311eac855146101725780631ecddf541461019d57806327a910dc146101a757806332731a6e146101be57806346c13e0f146101fb57610156565b3661015657005b600080fd5b34801561016757600080fd5b5061017061056f565b005b34801561017e57600080fd5b506101876106e5565b6040516101949190612264565b60405180910390f35b6101a561070b565b005b3480156101b357600080fd5b506101bc610827565b005b3480156101ca57600080fd5b506101e560048036038101906101e091906122c2565b6108de565b6040516101f29190612308565b60405180910390f35b34801561020757600080fd5b50610222600480360381019061021d919061234f565b610a44565b60405161022f9190612308565b60405180910390f35b34801561024457600080fd5b5061025f600480360381019061025a919061234f565b610a85565b005b34801561026d57600080fd5b506102886004803603810190610283919061234f565b610d91565b6040516102959190612308565b60405180910390f35b3480156102aa57600080fd5b506102b3610dc0565b6040516102c09190612308565b60405180910390f35b3480156102d557600080fd5b506102de610dc6565b005b3480156102ec57600080fd5b506102f5610dda565b005b34801561030357600080fd5b5061031e600480360381019061031991906122c2565b610e9c565b6040516103349a9998979695949392919061237c565b60405180910390f35b34801561034957600080fd5b50610352610ef0565b60405161035f9190612427565b60405180910390f35b34801561037457600080fd5b5061038f600480360381019061038a91906122c2565b610f19565b60405161039c9190612308565b60405180910390f35b3480156103b157600080fd5b506103cc60048036038101906103c791906122c2565b611071565b6040516103d99190612308565b60405180910390f35b3480156103ee57600080fd5b506104096004803603810190610404919061234f565b611123565b6040516104169190612427565b60405180910390f35b34801561042b57600080fd5b506104466004803603810190610441919061234f565b611162565b005b34801561045457600080fd5b5061045d61145b565b60405161046a9190612308565b60405180910390f35b34801561047f57600080fd5b50610488611461565b6040516104959190612308565b60405180910390f35b3480156104aa57600080fd5b506104b3611505565b6040516104c09190612463565b60405180910390f35b3480156104d557600080fd5b506104f060048036038101906104eb919061234f565b61152b565b005b3480156104fe57600080fd5b50610507611cd8565b604051610514919061249f565b60405180910390f35b34801561052957600080fd5b50610544600480360381019061053f919061234f565b611cfe565b005b34801561055257600080fd5b5061056d600480360381019061056891906122c2565b612018565b005b6000600460003373ffffffffffffffffffffffffffffffffffffffff1673ffffffffffffffffffffffffffffffffffffffff16815260200190815260200160002060070154146105f4576040517f08c379a00000000000000000000000000000000000000000000000000000000081526004016105eb90612517565b60405180910390fd5b60003373ffffffffffffffffffffffffffffffffffffffff16600460003373ffffffffffffffffffffffffffffffffffffffff1673ffffffffffffffffffffffffffffffffffffffff1681526020019081526020016000206004015460405161065c90612568565b60006040518083038185875af1925050503d8060008114610699576040519150601f19603f3d011682016040523d82523d6000602084013e61069e565b606091505b50509050806106e2576040517f08c379a00000000000000000000000000000000000000000000000000000000081526004016106d9906125c9565b60405180910390fd5b50565b600260009054906101000a900473ffffffffffffffffffffffffffffffffffffffff1681565b34600460003373ffffffffffffffffffffffffffffffffffffffff1673ffffffffffffffffffffffffffffffffffffffff168152602001908152602001600020600401600082825461075d9190612618565b9250508190555060006107b1600460003373ffffffffffffffffffffffffffffffffffffffff1673ffffffffffffffffffffffffffffffffffffffff16815260200190815260200160002060040154610d91565b9050600a6008826107c2919061264c565b6107cc91906126bd565b600460003373ffffffffffffffffffffffffffffffffffffffff1673ffffffffffffffffffffffffffffffffffffffff168152602001908152602001600020600601600082825461081d9190612618565b9250508190555050565b61082f61209b565b60003373ffffffffffffffffffffffffffffffffffffffff164760405161085590612568565b60006040518083038185875af1925050503d8060008114610892576040519150601f19603f3d011682016040523d82523d6000602084013e610897565b606091505b50509050806108db576040517f08c379a00000000000000000000000000000000000000000000000000000000081526004016108d2906125c9565b60405180910390fd5b50565b600080600460008473ffffffffffffffffffffffffffffffffffffffff1673ffffffffffffffffffffffffffffffffffffffff16815260200190815260200160002060010154036109325760009050610a3f565b6000600460008473ffffffffffffffffffffffffffffffffffffffff1673ffffffffffffffffffffffffffffffffffffffff168152602001908152602001600020600101544261098291906126ee565b9050600062030d40600460008673ffffffffffffffffffffffffffffffffffffffff1673ffffffffffffffffffffffffffffffffffffffff168152602001908152602001600020600001546109d791906126bd565b826109e2919061264c565b600460008673ffffffffffffffffffffffffffffffffffffffff1673ffffffffffffffffffffffffffffffffffffffff16815260200190815260200160002060020154610a2f9190612618565b9050610a3a81610a44565b925050505b919050565b60008061271083610a5591906126bd565b9050670de0b6b3a7640000610a68611461565b82610a73919061264c565b610a7d91906126bd565b915050919050565b8060008111610ac9576040517f08c379a0000000000000000000000000000000000000000000000000000000008152600401610ac09061276e565b60405180910390fd5b600460003373ffffffffffffffffffffffffffffffffffffffff1673ffffffffffffffffffffffffffffffffffffffff16815260200190815260200160002060000154821115610b4e576040517f08c379a0000000000000000000000000000000000000000000000000000000008152600401610b4590612800565b60405180910390fd5b81600460003373ffffffffffffffffffffffffffffffffffffffff1673ffffffffffffffffffffffffffffffffffffffff1681526020019081526020016000206000016000828254610ba091906126ee565b925050819055508160066000828254610bb991906126ee565b925050819055506000610bcb336108de565b90506000600460003373ffffffffffffffffffffffffffffffffffffffff1673ffffffffffffffffffffffffffffffffffffffff1681526020019081526020016000206002018190555042600460003373ffffffffffffffffffffffffffffffffffffffff1673ffffffffffffffffffffffffffffffffffffffff16815260200190815260200160002060010181905550600260009054906101000a900473ffffffffffffffffffffffffffffffffffffffff1673ffffffffffffffffffffffffffffffffffffffff1663a9059cbb33856040518363ffffffff1660e01b8152600401610cb9929190612820565b6020604051808303816000875af1158015610cd8573d6000803e3d6000fd5b505050506040513d601f19601f82011682018060405250810190610cfc9190612881565b50600360009054906101000a900473ffffffffffffffffffffffffffffffffffffffff1673ffffffffffffffffffffffffffffffffffffffff166340c10f1933836040518363ffffffff1660e01b8152600401610d5a929190612820565b600060405180830381600087803b158015610d7457600080fd5b505af1158015610d88573d6000803e3d6000fd5b50505050505050565b6000670de0b6b3a7640000610da4611461565b83610daf919061264c565b610db991906126bd565b9050919050565b60075481565b610dce61209b565b610dd86000612119565b565b610de261209b565b600260009054906101000a900473ffffffffffffffffffffffffffffffffffffffff1673ffffffffffffffffffffffffffffffffffffffff1663a9059cbb33600754600654610e319190612618565b6040518363ffffffff1660e01b8152600401610e4e929190612820565b6020604051808303816000875af1158015610e6d573d6000803e3d6000fd5b505050506040513d601f19601f82011682018060405250810190610e919190612881565b506000600681905550565b6004602052806000526040600020600091509050806000015490806001015490806002015490806003015490806004015490806005015490806006015490806007015490806008015490806009015490508a565b60008060009054906101000a900473ffffffffffffffffffffffffffffffffffffffff16905090565b600080600460008473ffffffffffffffffffffffffffffffffffffffff1673ffffffffffffffffffffffffffffffffffffffff1681526020019081526020016000206008015403610f6d576000905061106c565b6000600460008473ffffffffffffffffffffffffffffffffffffffff1673ffffffffffffffffffffffffffffffffffffffff1681526020019081526020016000206008015442610fbd91906126ee565b9050620186a0600460008573ffffffffffffffffffffffffffffffffffffffff1673ffffffffffffffffffffffffffffffffffffffff1681526020019081526020016000206007015461101091906126bd565b8161101b919061264c565b600460008573ffffffffffffffffffffffffffffffffffffffff1673ffffffffffffffffffffffffffffffffffffffff168152602001908152602001600020600901546110689190612618565b9150505b919050565b600080600460008473ffffffffffffffffffffffffffffffffffffffff1673ffffffffffffffffffffffffffffffffffffffff16815260200190815260200160002060080154036110c5576000905061111e565b6110ce82610f19565b600460008473ffffffffffffffffffffffffffffffffffffffff1673ffffffffffffffffffffffffffffffffffffffff1681526020019081526020016000206007015461111b9190612618565b90505b919050565b6005818154811061113357600080fd5b906000526020600020016000915054906101000a900473ffffffffffffffffffffffffffffffffffffffff1681565b80600081116111a6576040517f08c379a000000000000000000000000000000000000000000000000000000000815260040161119d9061276e565b60405180910390fd5b6111ae610ef0565b73ffffffffffffffffffffffffffffffffffffffff163373ffffffffffffffffffffffffffffffffffffffff16036112fa57600260009054906101000a900473ffffffffffffffffffffffffffffffffffffffff1673ffffffffffffffffffffffffffffffffffffffff166323b872dd3330856040518463ffffffff1660e01b815260040161123f939291906128ae565b6020604051808303816000875af115801561125e573d6000803e3d6000fd5b505050506040513d601f19601f820116820180604052508101906112829190612881565b5081600460003373ffffffffffffffffffffffffffffffffffffffff1673ffffffffffffffffffffffffffffffffffffffff16815260200190815260200160002060000160008282546112d59190612618565b9250508190555081600660008282546112ee9190612618565b92505081905550611457565b600260009054906101000a900473ffffffffffffffffffffffffffffffffffffffff1673ffffffffffffffffffffffffffffffffffffffff166323b872dd3330856040518463ffffffff1660e01b8152600401611359939291906128ae565b6020604051808303816000875af1158015611378573d6000803e3d6000fd5b505050506040513d601f19601f8201168201806040525081019061139c9190612881565b5081600460003373ffffffffffffffffffffffffffffffffffffffff1673ffffffffffffffffffffffffffffffffffffffff16815260200190815260200160002060000160008282546113ef9190612618565b9250508190555042600460003373ffffffffffffffffffffffffffffffffffffffff1673ffffffffffffffffffffffffffffffffffffffff16815260200190815260200160002060010181905550816006600082825461144f9190612618565b925050819055505b5050565b60065481565b60006064600160009054906101000a900473ffffffffffffffffffffffffffffffffffffffff1673ffffffffffffffffffffffffffffffffffffffff1663a0a8045e6040518163ffffffff1660e01b8152600401602060405180830381865afa1580156114d2573d6000803e3d6000fd5b505050506040513d601f19601f820116820180604052508101906114f6919061291b565b61150091906126bd565b905090565b600360009054906101000a900473ffffffffffffffffffffffffffffffffffffffff1681565b806000811161156f576040517f08c379a00000000000000000000000000000000000000000000000000000000081526004016115669061276e565b60405180910390fd5b600061157a33611071565b905061158533610f19565b600460003373ffffffffffffffffffffffffffffffffffffffff1673ffffffffffffffffffffffffffffffffffffffff168152602001908152602001600020600901819055508083106118c357600260009054906101000a900473ffffffffffffffffffffffffffffffffffffffff1673ffffffffffffffffffffffffffffffffffffffff166323b872dd3330846040518463ffffffff1660e01b8152600401611631939291906128ae565b6020604051808303816000875af1158015611650573d6000803e3d6000fd5b505050506040513d601f19601f820116820180604052508101906116749190612881565b50600a60086116c4600460003373ffffffffffffffffffffffffffffffffffffffff1673ffffffffffffffffffffffffffffffffffffffff16815260200190815260200160002060040154610d91565b6116ce919061264c565b6116d891906126bd565b600460003373ffffffffffffffffffffffffffffffffffffffff1673ffffffffffffffffffffffffffffffffffffffff16815260200190815260200160002060060160008282546117299190612618565b92505081905550600460003373ffffffffffffffffffffffffffffffffffffffff1673ffffffffffffffffffffffffffffffffffffffff16815260200190815260200160002060070154600660008282546117849190612618565b92505081905550600460003373ffffffffffffffffffffffffffffffffffffffff1673ffffffffffffffffffffffffffffffffffffffff16815260200190815260200160002060090154600760008282546117df9190612618565b925050819055506000600460003373ffffffffffffffffffffffffffffffffffffffff1673ffffffffffffffffffffffffffffffffffffffff168152602001908152602001600020600701819055506000600460003373ffffffffffffffffffffffffffffffffffffffff1673ffffffffffffffffffffffffffffffffffffffff168152602001908152602001600020600901819055506000600460003373ffffffffffffffffffffffffffffffffffffffff1673ffffffffffffffffffffffffffffffffffffffff16815260200190815260200160002060080181905550611cd3565b600460003373ffffffffffffffffffffffffffffffffffffffff1673ffffffffffffffffffffffffffffffffffffffff168152602001908152602001600020600901548310611bbc57600260009054906101000a900473ffffffffffffffffffffffffffffffffffffffff1673ffffffffffffffffffffffffffffffffffffffff166323b872dd3330866040518463ffffffff1660e01b815260040161196b939291906128ae565b6020604051808303816000875af115801561198a573d6000803e3d6000fd5b505050506040513d601f19601f820116820180604052508101906119ae9190612881565b5042600460003373ffffffffffffffffffffffffffffffffffffffff1673ffffffffffffffffffffffffffffffffffffffff168152602001908152602001600020600801819055506000600460003373ffffffffffffffffffffffffffffffffffffffff1673ffffffffffffffffffffffffffffffffffffffff1681526020019081526020016000206009015484611a4691906126ee565b9050600460003373ffffffffffffffffffffffffffffffffffffffff1673ffffffffffffffffffffffffffffffffffffffff1681526020019081526020016000206009015460076000828254611a9c9190612618565b925050819055506000600460003373ffffffffffffffffffffffffffffffffffffffff1673ffffffffffffffffffffffffffffffffffffffff1681526020019081526020016000206009018190555080600460003373ffffffffffffffffffffffffffffffffffffffff1673ffffffffffffffffffffffffffffffffffffffff1681526020019081526020016000206006016000828254611b3d9190612618565b925050819055508060066000828254611b569190612618565b9250508190555080600460003373ffffffffffffffffffffffffffffffffffffffff1673ffffffffffffffffffffffffffffffffffffffff1681526020019081526020016000206007016000828254611baf91906126ee565b9250508190555050611cd2565b600260009054906101000a900473ffffffffffffffffffffffffffffffffffffffff1673ffffffffffffffffffffffffffffffffffffffff166323b872dd3330866040518463ffffffff1660e01b8152600401611c1b939291906128ae565b6020604051808303816000875af1158015611c3a573d6000803e3d6000fd5b505050506040513d601f19601f82011682018060405250810190611c5e9190612881565b508260076000828254611c719190612618565b9250508190555082600460003373ffffffffffffffffffffffffffffffffffffffff1673ffffffffffffffffffffffffffffffffffffffff1681526020019081526020016000206009016000828254611cca91906126ee565b925050819055505b5b505050565b600160009054906101000a900473ffffffffffffffffffffffffffffffffffffffff1681565b8060008111611d42576040517f08c379a0000000000000000000000000000000000000000000000000000000008152600401611d399061276e565b60405180910390fd5b600460003373ffffffffffffffffffffffffffffffffffffffff1673ffffffffffffffffffffffffffffffffffffffff16815260200190815260200160002060060154821115611dc7576040517f08c379a0000000000000000000000000000000000000000000000000000000008152600401611dbe90612994565b60405180910390fd5b6000600460003373ffffffffffffffffffffffffffffffffffffffff1673ffffffffffffffffffffffffffffffffffffffff1681526020019081526020016000206009015414611e6157611e1a33610f19565b600460003373ffffffffffffffffffffffffffffffffffffffff1673ffffffffffffffffffffffffffffffffffffffff168152602001908152602001600020600901819055505b81600460003373ffffffffffffffffffffffffffffffffffffffff1673ffffffffffffffffffffffffffffffffffffffff1681526020019081526020016000206006016000828254611eb391906126ee565b9250508190555081600460003373ffffffffffffffffffffffffffffffffffffffff1673ffffffffffffffffffffffffffffffffffffffff1681526020019081526020016000206007016000828254611f0c9190612618565b925050819055508160066000828254611f2591906126ee565b9250508190555042600460003373ffffffffffffffffffffffffffffffffffffffff1673ffffffffffffffffffffffffffffffffffffffff16815260200190815260200160002060080181905550600260009054906101000a900473ffffffffffffffffffffffffffffffffffffffff1673ffffffffffffffffffffffffffffffffffffffff1663a9059cbb33846040518363ffffffff1660e01b8152600401611fd0929190612820565b6020604051808303816000875af1158015611fef573d6000803e3d6000fd5b505050506040513d601f19601f820116820180604052508101906120139190612881565b505050565b61202061209b565b600073ffffffffffffffffffffffffffffffffffffffff168173ffffffffffffffffffffffffffffffffffffffff160361208f576040517f08c379a000000000000000000000000000000000000000000000000000000000815260040161208690612a26565b60405180910390fd5b61209881612119565b50565b6120a36121dd565b73ffffffffffffffffffffffffffffffffffffffff166120c1610ef0565b73ffffffffffffffffffffffffffffffffffffffff1614612117576040517f08c379a000000000000000000000000000000000000000000000000000000000815260040161210e90612a92565b60405180910390fd5b565b60008060009054906101000a900473ffffffffffffffffffffffffffffffffffffffff169050816000806101000a81548173ffffffffffffffffffffffffffffffffffffffff021916908373ffffffffffffffffffffffffffffffffffffffff1602179055508173ffffffffffffffffffffffffffffffffffffffff168173ffffffffffffffffffffffffffffffffffffffff167f8be0079c531659141344cd1fd0a4f28419497f9722a3daafe3b4186f6b6457e060405160405180910390a35050565b600033905090565b600073ffffffffffffffffffffffffffffffffffffffff82169050919050565b6000819050919050565b600061222a612225612220846121e5565b612205565b6121e5565b9050919050565b600061223c8261220f565b9050919050565b600061224e82612231565b9050919050565b61225e81612243565b82525050565b60006020820190506122796000830184612255565b92915050565b600080fd5b600061228f826121e5565b9050919050565b61229f81612284565b81146122aa57600080fd5b50565b6000813590506122bc81612296565b92915050565b6000602082840312156122d8576122d761227f565b5b60006122e6848285016122ad565b91505092915050565b6000819050919050565b612302816122ef565b82525050565b600060208201905061231d60008301846122f9565b92915050565b61232c816122ef565b811461233757600080fd5b50565b60008135905061234981612323565b92915050565b6000602082840312156123655761236461227f565b5b60006123738482850161233a565b91505092915050565b600061014082019050612392600083018d6122f9565b61239f602083018c6122f9565b6123ac604083018b6122f9565b6123b9606083018a6122f9565b6123c660808301896122f9565b6123d360a08301886122f9565b6123e060c08301876122f9565b6123ed60e08301866122f9565b6123fb6101008301856122f9565b6124096101208301846122f9565b9b9a5050505050505050505050565b61242181612284565b82525050565b600060208201905061243c6000830184612418565b92915050565b600061244d82612231565b9050919050565b61245d81612442565b82525050565b60006020820190506124786000830184612454565b92915050565b600061248982612231565b9050919050565b6124998161247e565b82525050565b60006020820190506124b46000830184612490565b92915050565b600082825260208201905092915050565b7f2e2e2e0000000000000000000000000000000000000000000000000000000000600082015250565b60006125016003836124ba565b915061250c826124cb565b602082019050919050565b60006020820190508181036000830152612530816124f4565b9050919050565b600081905092915050565b50565b6000612552600083612537565b915061255d82612542565b600082019050919050565b600061257382612545565b9150819050919050565b7f4661696c656420746f2077697468647261770000000000000000000000000000600082015250565b60006125b36012836124ba565b91506125be8261257d565b602082019050919050565b600060208201905081810360008301526125e2816125a6565b9050919050565b7f4e487b7100000000000000000000000000000000000000000000000000000000600052601160045260246000fd5b6000612623826122ef565b915061262e836122ef565b9250828201905080821115612646576126456125e9565b5b92915050565b6000612657826122ef565b9150612662836122ef565b9250828202612670816122ef565b91508282048414831517612687576126866125e9565b5b5092915050565b7f4e487b7100000000000000000000000000000000000000000000000000000000600052601260045260246000fd5b60006126c8826122ef565b91506126d3836122ef565b9250826126e3576126e261268e565b5b828204905092915050565b60006126f9826122ef565b9150612704836122ef565b925082820390508181111561271c5761271b6125e9565b5b92915050565b7f56616c7565206e6f742061636365707465640000000000000000000000000000600082015250565b60006127586012836124ba565b915061276382612722565b602082019050919050565b600060208201905081810360008301526127878161274b565b9050919050565b7f43616e2774207769746864726177206d6f7265207468616e207768617420796f60008201527f75206465706f7369746564000000000000000000000000000000000000000000602082015250565b60006127ea602b836124ba565b91506127f58261278e565b604082019050919050565b60006020820190508181036000830152612819816127dd565b9050919050565b60006040820190506128356000830185612418565b61284260208301846122f9565b9392505050565b60008115159050919050565b61285e81612849565b811461286957600080fd5b50565b60008151905061287b81612855565b92915050565b6000602082840312156128975761289661227f565b5b60006128a58482850161286c565b91505092915050565b60006060820190506128c36000830186612418565b6128d06020830185612418565b6128dd60408301846122f9565b949350505050565b6000819050919050565b6128f8816128e5565b811461290357600080fd5b50565b600081519050612915816128ef565b92915050565b6000602082840312156129315761293061227f565b5b600061293f84828501612906565b91505092915050565b7f43616e2774207769746864726177206d6f7265207468616e20616c6c6f776564600082015250565b600061297e6020836124ba565b915061298982612948565b602082019050919050565b600060208201905081810360008301526129ad81612971565b9050919050565b7f4f776e61626c653a206e6577206f776e657220697320746865207a65726f206160008201527f6464726573730000000000000000000000000000000000000000000000000000602082015250565b6000612a106026836124ba565b9150612a1b826129b4565b604082019050919050565b60006020820190508181036000830152612a3f81612a03565b9050919050565b7f4f776e61626c653a2063616c6c6572206973206e6f7420746865206f776e6572600082015250565b6000612a7c6020836124ba565b9150612a8782612a46565b602082019050919050565b60006020820190508181036000830152612aab81612a6f565b905091905056fea2646970667358221220aaed515b96c36eaeba07ee19c2936a2fa2e6759965e53cd7f9387724c0cf913864736f6c63430008130033",
  "linkReferences": {},
  "deployedLinkReferences": {}
}