{
  "_format": "hh-sol-artifact-1",
  "contractName": "USDC_Swap",
  "sourceName": "contracts/USDC_Swap.sol",
  "abi": [
    {
      "inputs": [],
      "stateMutability": "nonpayable",
      "type": "constructor"
    },
    {
      "anonymous": false,
      "inputs": [
        {
          "indexed": true,
          "internalType": "address",
          "name": "previousOwner",
          "type": "address"
        },
        {
          "indexed": true,
          "internalType": "address",
          "name": "newOwner",
          "type": "address"
        }
      ],
      "name": "OwnershipTransferred",
      "type": "event"
    },
    {
      "inputs": [
        {
          "internalType": "address",
          "name": "owner",
          "type": "address"
        },
        {
          "internalType": "address",
          "name": "spender",
          "type": "address"
        }
      ],
      "name": "allowanceUSDC",
      "outputs": [
        {
          "internalType": "uint256",
          "name": "",
          "type": "uint256"
        }
      ],
      "stateMutability": "view",
      "type": "function"
    },
    {
      "inputs": [
        {
          "internalType": "uint256",
          "name": "amount",
          "type": "uint256"
        }
      ],
      "name": "depositUSDC",
      "outputs": [],
      "stateMutability": "nonpayable",
      "type": "function"
    },
    {
      "inputs": [],
      "name": "getETHBalance",
      "outputs": [
        {
          "internalType": "uint256",
          "name": "",
          "type": "uint256"
        }
      ],
      "stateMutability": "view",
      "type": "function"
    },
    {
      "inputs": [],
      "name": "getETHPrice",
      "outputs": [
        {
          "internalType": "int256",
          "name": "",
          "type": "int256"
        }
      ],
      "stateMutability": "view",
      "type": "function"
    },
    {
      "inputs": [
        {
          "internalType": "address",
          "name": "account",
          "type": "address"
        }
      ],
      "name": "getUSDCBalance",
      "outputs": [
        {
          "internalType": "uint256",
          "name": "",
          "type": "uint256"
        }
      ],
      "stateMutability": "view",
      "type": "function"
    },
    {
      "inputs": [],
      "name": "oracleContract",
      "outputs": [
        {
          "internalType": "contract CallOracle",
          "name": "",
          "type": "address"
        }
      ],
      "stateMutability": "view",
      "type": "function"
    },
    {
      "inputs": [],
      "name": "owner",
      "outputs": [
        {
          "internalType": "address",
          "name": "",
          "type": "address"
        }
      ],
      "stateMutability": "view",
      "type": "function"
    },
    {
      "inputs": [],
      "name": "ownerWithdrawETH",
      "outputs": [],
      "stateMutability": "nonpayable",
      "type": "function"
    },
    {
      "inputs": [
        {
          "internalType": "uint256",
          "name": "amount",
          "type": "uint256"
        }
      ],
      "name": "ownerWithdrawUSDC",
      "outputs": [],
      "stateMutability": "nonpayable",
      "type": "function"
    },
    {
      "inputs": [],
      "name": "renounceOwnership",
      "outputs": [],
      "stateMutability": "nonpayable",
      "type": "function"
    },
    {
      "inputs": [
        {
          "internalType": "uint256",
          "name": "amount",
          "type": "uint256"
        }
      ],
      "name": "swapToETH",
      "outputs": [],
      "stateMutability": "nonpayable",
      "type": "function"
    },
    {
      "inputs": [],
      "name": "swapToUSDC",
      "outputs": [],
      "stateMutability": "payable",
      "type": "function"
    },
    {
      "inputs": [
        {
          "internalType": "address",
          "name": "newOwner",
          "type": "address"
        }
      ],
      "name": "transferOwnership",
      "outputs": [],
      "stateMutability": "nonpayable",
      "type": "function"
    },
    {
      "inputs": [],
      "name": "usdcPool",
      "outputs": [
        {
          "internalType": "uint256",
          "name": "",
          "type": "uint256"
        }
      ],
      "stateMutability": "view",
      "type": "function"
    },
    {
      "inputs": [],
      "name": "usdcToken",
      "outputs": [
        {
          "internalType": "contract IERC20",
          "name": "",
          "type": "address"
        }
      ],
      "stateMutability": "view",
      "type": "function"
    },
    {
      "stateMutability": "payable",
      "type": "receive"
    }
  ],
  "bytecode": "0x608060405234801561001057600080fd5b5061002d6100226100dc60201b60201c565b6100e460201b60201c565b73d17ecb6579cad73ae27596929e13b619ba9060a5600160006101000a81548173ffffffffffffffffffffffffffffffffffffffff021916908373ffffffffffffffffffffffffffffffffffffffff1602179055507394a9d9ac8a22534e3faca9f4e7f2e2cf85d5e4c8600260006101000a81548173ffffffffffffffffffffffffffffffffffffffff021916908373ffffffffffffffffffffffffffffffffffffffff1602179055506101a8565b600033905090565b60008060009054906101000a900473ffffffffffffffffffffffffffffffffffffffff169050816000806101000a81548173ffffffffffffffffffffffffffffffffffffffff021916908373ffffffffffffffffffffffffffffffffffffffff1602179055508173ffffffffffffffffffffffffffffffffffffffff168173ffffffffffffffffffffffffffffffffffffffff167f8be0079c531659141344cd1fd0a4f28419497f9722a3daafe3b4186f6b6457e060405160405180910390a35050565b6115b9806101b76000396000f3fe6080604052600436106100ec5760003560e01c80638da5cb5b1161008a578063d405d4a211610059578063d405d4a2146102aa578063e49bd61e146102d3578063f2fde38b146102fe578063f688bcfb14610327576100f3565b80638da5cb5b1461021f578063a607a8d91461024a578063bece753214610275578063d2d7ab0d146102a0576100f3565b806357783703116100c6578063577837031461016357806368024717146101a05780636e947298146101dd578063715018a614610208576100f3565b806311eac855146100f8578063136b3f741461012357806327a910dc1461014c576100f3565b366100f357005b600080fd5b34801561010457600080fd5b5061010d610350565b60405161011a9190610dca565b60405180910390f35b34801561012f57600080fd5b5061014a60048036038101906101459190610e20565b610376565b005b34801561015857600080fd5b50610161610562565b005b34801561016f57600080fd5b5061018a60048036038101906101859190610e8b565b610619565b6040516101979190610eda565b60405180910390f35b3480156101ac57600080fd5b506101c760048036038101906101c29190610ef5565b6106c1565b6040516101d49190610eda565b60405180910390f35b3480156101e957600080fd5b506101f2610766565b6040516101ff9190610eda565b60405180910390f35b34801561021457600080fd5b5061021d61076e565b005b34801561022b57600080fd5b50610234610782565b6040516102419190610f31565b60405180910390f35b34801561025657600080fd5b5061025f6107ab565b60405161026c9190610f65565b60405180910390f35b34801561028157600080fd5b5061028a610843565b6040516102979190610fa1565b60405180910390f35b6102a8610869565b005b3480156102b657600080fd5b506102d160048036038101906102cc9190610e20565b6109a7565b005b3480156102df57600080fd5b506102e8610ab1565b6040516102f59190610eda565b60405180910390f35b34801561030a57600080fd5b5061032560048036038101906103209190610ef5565b610ab7565b005b34801561033357600080fd5b5061034e60048036038101906103499190610e20565b610b3a565b005b600260009054906101000a900473ffffffffffffffffffffffffffffffffffffffff1681565b600060646103826107ab565b61038c919061101a565b9050600081670de0b6b3a7640000846103a5919061104b565b6103af919061101a565b9050478111156103f4576040517f08c379a00000000000000000000000000000000000000000000000000000000081526004016103eb906110ea565b60405180910390fd5b8260036000828254610406919061110a565b9250508190555060003373ffffffffffffffffffffffffffffffffffffffff16826040516104339061116f565b60006040518083038185875af1925050503d8060008114610470576040519150601f19603f3d011682016040523d82523d6000602084013e610475565b606091505b50509050806104b9576040517f08c379a00000000000000000000000000000000000000000000000000000000081526004016104b0906111d0565b60405180910390fd5b600260009054906101000a900473ffffffffffffffffffffffffffffffffffffffff1673ffffffffffffffffffffffffffffffffffffffff166323b872dd3330876040518463ffffffff1660e01b8152600401610518939291906111f0565b6020604051808303816000875af1158015610537573d6000803e3d6000fd5b505050506040513d601f19601f8201168201806040525081019061055b919061125f565b5050505050565b61056a610c01565b60003373ffffffffffffffffffffffffffffffffffffffff16476040516105909061116f565b60006040518083038185875af1925050503d80600081146105cd576040519150601f19603f3d011682016040523d82523d6000602084013e6105d2565b606091505b5050905080610616576040517f08c379a000000000000000000000000000000000000000000000000000000000815260040161060d906112d8565b60405180910390fd5b50565b6000600260009054906101000a900473ffffffffffffffffffffffffffffffffffffffff1673ffffffffffffffffffffffffffffffffffffffff1663dd62ed3e84846040518363ffffffff1660e01b81526004016106789291906112f8565b602060405180830381865afa158015610695573d6000803e3d6000fd5b505050506040513d601f19601f820116820180604052508101906106b99190611336565b905092915050565b6000600260009054906101000a900473ffffffffffffffffffffffffffffffffffffffff1673ffffffffffffffffffffffffffffffffffffffff166370a08231836040518263ffffffff1660e01b815260040161071e9190610f31565b602060405180830381865afa15801561073b573d6000803e3d6000fd5b505050506040513d601f19601f8201168201806040525081019061075f9190611336565b9050919050565b600047905090565b610776610c01565b6107806000610c7f565b565b60008060009054906101000a900473ffffffffffffffffffffffffffffffffffffffff16905090565b6000600160009054906101000a900473ffffffffffffffffffffffffffffffffffffffff1673ffffffffffffffffffffffffffffffffffffffff1663a0a8045e6040518163ffffffff1660e01b8152600401602060405180830381865afa15801561081a573d6000803e3d6000fd5b505050506040513d601f19601f8201168201806040525081019061083e919061138f565b905090565b600160009054906101000a900473ffffffffffffffffffffffffffffffffffffffff1681565b600060646108756107ab565b61087f919061101a565b90506000670de0b6b3a76400008234610898919061104b565b6108a2919061101a565b90506003548111156108e9576040517f08c379a00000000000000000000000000000000000000000000000000000000081526004016108e0906110ea565b60405180910390fd5b80600360008282546108fb91906113bc565b92505081905550600260009054906101000a900473ffffffffffffffffffffffffffffffffffffffff1673ffffffffffffffffffffffffffffffffffffffff1663a9059cbb33836040518363ffffffff1660e01b815260040161095f9291906113f0565b6020604051808303816000875af115801561097e573d6000803e3d6000fd5b505050506040513d601f19601f820116820180604052508101906109a2919061125f565b505050565b6109af610c01565b6003548111156109f4576040517f08c379a00000000000000000000000000000000000000000000000000000000081526004016109eb90611465565b60405180910390fd5b8060036000828254610a0691906113bc565b92505081905550600260009054906101000a900473ffffffffffffffffffffffffffffffffffffffff1673ffffffffffffffffffffffffffffffffffffffff1663a9059cbb33836040518363ffffffff1660e01b8152600401610a6a9291906113f0565b6020604051808303816000875af1158015610a89573d6000803e3d6000fd5b505050506040513d601f19601f82011682018060405250810190610aad919061125f565b5050565b60035481565b610abf610c01565b600073ffffffffffffffffffffffffffffffffffffffff168173ffffffffffffffffffffffffffffffffffffffff1603610b2e576040517f08c379a0000000000000000000000000000000000000000000000000000000008152600401610b25906114f7565b60405180910390fd5b610b3781610c7f565b50565b610b42610c01565b600260009054906101000a900473ffffffffffffffffffffffffffffffffffffffff1673ffffffffffffffffffffffffffffffffffffffff166323b872dd3330846040518463ffffffff1660e01b8152600401610ba1939291906111f0565b6020604051808303816000875af1158015610bc0573d6000803e3d6000fd5b505050506040513d601f19601f82011682018060405250810190610be4919061125f565b508060036000828254610bf7919061110a565b9250508190555050565b610c09610d43565b73ffffffffffffffffffffffffffffffffffffffff16610c27610782565b73ffffffffffffffffffffffffffffffffffffffff1614610c7d576040517f08c379a0000000000000000000000000000000000000000000000000000000008152600401610c7490611563565b60405180910390fd5b565b60008060009054906101000a900473ffffffffffffffffffffffffffffffffffffffff169050816000806101000a81548173ffffffffffffffffffffffffffffffffffffffff021916908373ffffffffffffffffffffffffffffffffffffffff1602179055508173ffffffffffffffffffffffffffffffffffffffff168173ffffffffffffffffffffffffffffffffffffffff167f8be0079c531659141344cd1fd0a4f28419497f9722a3daafe3b4186f6b6457e060405160405180910390a35050565b600033905090565b600073ffffffffffffffffffffffffffffffffffffffff82169050919050565b6000819050919050565b6000610d90610d8b610d8684610d4b565b610d6b565b610d4b565b9050919050565b6000610da282610d75565b9050919050565b6000610db482610d97565b9050919050565b610dc481610da9565b82525050565b6000602082019050610ddf6000830184610dbb565b92915050565b600080fd5b6000819050919050565b610dfd81610dea565b8114610e0857600080fd5b50565b600081359050610e1a81610df4565b92915050565b600060208284031215610e3657610e35610de5565b5b6000610e4484828501610e0b565b91505092915050565b6000610e5882610d4b565b9050919050565b610e6881610e4d565b8114610e7357600080fd5b50565b600081359050610e8581610e5f565b92915050565b60008060408385031215610ea257610ea1610de5565b5b6000610eb085828601610e76565b9250506020610ec185828601610e76565b9150509250929050565b610ed481610dea565b82525050565b6000602082019050610eef6000830184610ecb565b92915050565b600060208284031215610f0b57610f0a610de5565b5b6000610f1984828501610e76565b91505092915050565b610f2b81610e4d565b82525050565b6000602082019050610f466000830184610f22565b92915050565b6000819050919050565b610f5f81610f4c565b82525050565b6000602082019050610f7a6000830184610f56565b92915050565b6000610f8b82610d97565b9050919050565b610f9b81610f80565b82525050565b6000602082019050610fb66000830184610f92565b92915050565b7f4e487b7100000000000000000000000000000000000000000000000000000000600052601260045260246000fd5b7f4e487b7100000000000000000000000000000000000000000000000000000000600052601160045260246000fd5b600061102582610dea565b915061103083610dea565b9250826110405761103f610fbc565b5b828204905092915050565b600061105682610dea565b915061106183610dea565b925082820261106f81610dea565b9150828204841483151761108657611085610feb565b5b5092915050565b600082825260208201905092915050565b7f4e6f7420656e6f756768206c6971756964697479000000000000000000000000600082015250565b60006110d460148361108d565b91506110df8261109e565b602082019050919050565b60006020820190508181036000830152611103816110c7565b9050919050565b600061111582610dea565b915061112083610dea565b925082820190508082111561113857611137610feb565b5b92915050565b600081905092915050565b50565b600061115960008361113e565b915061116482611149565b600082019050919050565b600061117a8261114c565b9150819050919050565b7f4661696c656420746f207472616e736665720000000000000000000000000000600082015250565b60006111ba60128361108d565b91506111c582611184565b602082019050919050565b600060208201905081810360008301526111e9816111ad565b9050919050565b60006060820190506112056000830186610f22565b6112126020830185610f22565b61121f6040830184610ecb565b949350505050565b60008115159050919050565b61123c81611227565b811461124757600080fd5b50565b60008151905061125981611233565b92915050565b60006020828403121561127557611274610de5565b5b60006112838482850161124a565b91505092915050565b7f4661696c656420746f2077697468647261770000000000000000000000000000600082015250565b60006112c260128361108d565b91506112cd8261128c565b602082019050919050565b600060208201905081810360008301526112f1816112b5565b9050919050565b600060408201905061130d6000830185610f22565b61131a6020830184610f22565b9392505050565b60008151905061133081610df4565b92915050565b60006020828403121561134c5761134b610de5565b5b600061135a84828501611321565b91505092915050565b61136c81610f4c565b811461137757600080fd5b50565b60008151905061138981611363565b92915050565b6000602082840312156113a5576113a4610de5565b5b60006113b38482850161137a565b91505092915050565b60006113c782610dea565b91506113d283610dea565b92508282039050818111156113ea576113e9610feb565b5b92915050565b60006040820190506114056000830185610f22565b6114126020830184610ecb565b9392505050565b7f416d6f756e74206e6f7420617661696c61626c6520746f207769746864726177600082015250565b600061144f60208361108d565b915061145a82611419565b602082019050919050565b6000602082019050818103600083015261147e81611442565b9050919050565b7f4f776e61626c653a206e6577206f776e657220697320746865207a65726f206160008201527f6464726573730000000000000000000000000000000000000000000000000000602082015250565b60006114e160268361108d565b91506114ec82611485565b604082019050919050565b60006020820190508181036000830152611510816114d4565b9050919050565b7f4f776e61626c653a2063616c6c6572206973206e6f7420746865206f776e6572600082015250565b600061154d60208361108d565b915061155882611517565b602082019050919050565b6000602082019050818103600083015261157c81611540565b905091905056fea2646970667358221220d0627822d3f3cf63f9cc32d1f8978f08e02ac00c1b10883b9dc69ccaf454843664736f6c63430008130033",
  "linkReferences": {},
  "deployedLinkReferences": {}
}